{
  "address": "0xe3E8cd619bA9CD37B6bAD1740d7afAcF58b570ad",
  "abi": [
    {
      "inputs": [
        {
          "internalType": "address",
          "name": "_peronio",
          "type": "address"
        }
      ],
      "stateMutability": "nonpayable",
      "type": "constructor"
    },
    {
      "anonymous": false,
      "inputs": [
        {
          "indexed": true,
          "internalType": "bytes32",
          "name": "voucherHash",
          "type": "bytes32"
        },
        {
          "indexed": false,
          "internalType": "address",
          "name": "delegate",
          "type": "address"
        }
      ],
      "name": "VoucherServed",
      "type": "event"
    },
    {
      "inputs": [],
      "name": "PERMIT_VOUCHER_TAG",
      "outputs": [
        {
          "internalType": "uint32",
          "name": "",
          "type": "uint32"
        }
      ],
      "stateMutability": "view",
      "type": "function"
    },
    {
      "inputs": [],
      "name": "TRANSFER_FROM_VOUCHER_TAG",
      "outputs": [
        {
          "internalType": "uint32",
          "name": "",
          "type": "uint32"
        }
      ],
      "stateMutability": "view",
      "type": "function"
    },
    {
      "inputs": [],
      "name": "VOUCHER_TYPEHASH",
      "outputs": [
        {
          "internalType": "bytes32",
          "name": "",
          "type": "bytes32"
        }
      ],
      "stateMutability": "view",
      "type": "function"
    },
    {
      "inputs": [
        {
          "internalType": "uint256",
          "name": "nonce",
          "type": "uint256"
        },
        {
          "internalType": "address",
          "name": "owner",
          "type": "address"
        },
        {
          "internalType": "address",
          "name": "spender",
          "type": "address"
        },
        {
          "internalType": "uint256",
          "name": "value",
          "type": "uint256"
        },
        {
          "internalType": "uint256",
          "name": "permitDeadline",
          "type": "uint256"
        },
        {
          "internalType": "uint8",
          "name": "v",
          "type": "uint8"
        },
        {
          "internalType": "bytes32",
          "name": "r",
          "type": "bytes32"
        },
        {
          "internalType": "bytes32",
          "name": "s",
          "type": "bytes32"
        },
        {
          "internalType": "bytes",
          "name": "metadata",
          "type": "bytes"
        }
      ],
      "name": "buildPermitVoucher",
      "outputs": [
        {
          "components": [
            {
              "internalType": "uint32",
              "name": "tag",
              "type": "uint32"
            },
            {
              "internalType": "uint256",
              "name": "nonce",
              "type": "uint256"
            },
            {
              "internalType": "uint256",
              "name": "deadline",
              "type": "uint256"
            },
            {
              "internalType": "bytes",
              "name": "payload",
              "type": "bytes"
            },
            {
              "internalType": "bytes",
              "name": "metadata",
              "type": "bytes"
            }
          ],
          "internalType": "struct IGateway.Voucher",
          "name": "voucher",
          "type": "tuple"
        }
      ],
      "stateMutability": "view",
      "type": "function"
    },
    {
      "inputs": [
        {
          "internalType": "uint256",
          "name": "nonce",
          "type": "uint256"
        },
        {
          "internalType": "uint256",
          "name": "deadline",
          "type": "uint256"
        },
        {
          "internalType": "address",
          "name": "owner",
          "type": "address"
        },
        {
          "internalType": "address",
          "name": "spender",
          "type": "address"
        },
        {
          "internalType": "uint256",
          "name": "value",
          "type": "uint256"
        },
        {
          "internalType": "uint256",
          "name": "permitDeadline",
          "type": "uint256"
        },
        {
          "internalType": "uint8",
          "name": "v",
          "type": "uint8"
        },
        {
          "internalType": "bytes32",
          "name": "r",
          "type": "bytes32"
        },
        {
          "internalType": "bytes32",
          "name": "s",
          "type": "bytes32"
        },
        {
          "internalType": "bytes",
          "name": "metadata",
          "type": "bytes"
        }
      ],
      "name": "buildPermitVoucher",
      "outputs": [
        {
          "components": [
            {
              "internalType": "uint32",
              "name": "tag",
              "type": "uint32"
            },
            {
              "internalType": "uint256",
              "name": "nonce",
              "type": "uint256"
            },
            {
              "internalType": "uint256",
              "name": "deadline",
              "type": "uint256"
            },
            {
              "internalType": "bytes",
              "name": "payload",
              "type": "bytes"
            },
            {
              "internalType": "bytes",
              "name": "metadata",
              "type": "bytes"
            }
          ],
          "internalType": "struct IGateway.Voucher",
          "name": "voucher",
          "type": "tuple"
        }
      ],
      "stateMutability": "pure",
      "type": "function"
    },
    {
      "inputs": [
        {
          "internalType": "uint256",
          "name": "nonce",
          "type": "uint256"
        },
        {
          "internalType": "address",
          "name": "owner",
          "type": "address"
        },
        {
          "internalType": "address",
          "name": "spender",
          "type": "address"
        },
        {
          "internalType": "uint256",
          "name": "value",
          "type": "uint256"
        },
        {
          "internalType": "uint256",
          "name": "permitDeadline",
          "type": "uint256"
        },
        {
          "internalType": "uint8",
          "name": "v",
          "type": "uint8"
        },
        {
          "internalType": "bytes32",
          "name": "r",
          "type": "bytes32"
        },
        {
          "internalType": "bytes32",
          "name": "s",
          "type": "bytes32"
        }
      ],
      "name": "buildPermitVoucher",
      "outputs": [
        {
          "components": [
            {
              "internalType": "uint32",
              "name": "tag",
              "type": "uint32"
            },
            {
              "internalType": "uint256",
              "name": "nonce",
              "type": "uint256"
            },
            {
              "internalType": "uint256",
              "name": "deadline",
              "type": "uint256"
            },
            {
              "internalType": "bytes",
              "name": "payload",
              "type": "bytes"
            },
            {
              "internalType": "bytes",
              "name": "metadata",
              "type": "bytes"
            }
          ],
          "internalType": "struct IGateway.Voucher",
          "name": "voucher",
          "type": "tuple"
        }
      ],
      "stateMutability": "view",
      "type": "function"
    },
    {
      "inputs": [
        {
          "internalType": "uint256",
          "name": "nonce",
          "type": "uint256"
        },
        {
          "internalType": "uint256",
          "name": "deadline",
          "type": "uint256"
        },
        {
          "internalType": "address",
          "name": "owner",
          "type": "address"
        },
        {
          "internalType": "address",
          "name": "spender",
          "type": "address"
        },
        {
          "internalType": "uint256",
          "name": "value",
          "type": "uint256"
        },
        {
          "internalType": "uint256",
          "name": "permitDeadline",
          "type": "uint256"
        },
        {
          "internalType": "uint8",
          "name": "v",
          "type": "uint8"
        },
        {
          "internalType": "bytes32",
          "name": "r",
          "type": "bytes32"
        },
        {
          "internalType": "bytes32",
          "name": "s",
          "type": "bytes32"
        }
      ],
      "name": "buildPermitVoucher",
      "outputs": [
        {
          "components": [
            {
              "internalType": "uint32",
              "name": "tag",
              "type": "uint32"
            },
            {
              "internalType": "uint256",
              "name": "nonce",
              "type": "uint256"
            },
            {
              "internalType": "uint256",
              "name": "deadline",
              "type": "uint256"
            },
            {
              "internalType": "bytes",
              "name": "payload",
              "type": "bytes"
            },
            {
              "internalType": "bytes",
              "name": "metadata",
              "type": "bytes"
            }
          ],
          "internalType": "struct IGateway.Voucher",
          "name": "voucher",
          "type": "tuple"
        }
      ],
      "stateMutability": "pure",
      "type": "function"
    },
    {
      "inputs": [
        {
          "internalType": "uint256",
          "name": "nonce",
          "type": "uint256"
        },
        {
          "internalType": "uint256",
          "name": "deadline",
          "type": "uint256"
        },
        {
          "internalType": "address",
          "name": "from",
          "type": "address"
        },
        {
          "internalType": "address",
          "name": "to",
          "type": "address"
        },
        {
          "internalType": "uint256",
          "name": "amount",
          "type": "uint256"
        }
      ],
      "name": "buildTransferFromVoucher",
      "outputs": [
        {
          "components": [
            {
              "internalType": "uint32",
              "name": "tag",
              "type": "uint32"
            },
            {
              "internalType": "uint256",
              "name": "nonce",
              "type": "uint256"
            },
            {
              "internalType": "uint256",
              "name": "deadline",
              "type": "uint256"
            },
            {
              "internalType": "bytes",
              "name": "payload",
              "type": "bytes"
            },
            {
              "internalType": "bytes",
              "name": "metadata",
              "type": "bytes"
            }
          ],
          "internalType": "struct IGateway.Voucher",
          "name": "voucher",
          "type": "tuple"
        }
      ],
      "stateMutability": "pure",
      "type": "function"
    },
    {
      "inputs": [
        {
          "internalType": "uint256",
          "name": "nonce",
          "type": "uint256"
        },
        {
          "internalType": "address",
          "name": "from",
          "type": "address"
        },
        {
          "internalType": "address",
          "name": "to",
          "type": "address"
        },
        {
          "internalType": "uint256",
          "name": "amount",
          "type": "uint256"
        }
      ],
      "name": "buildTransferFromVoucher",
      "outputs": [
        {
          "components": [
            {
              "internalType": "uint32",
              "name": "tag",
              "type": "uint32"
            },
            {
              "internalType": "uint256",
              "name": "nonce",
              "type": "uint256"
            },
            {
              "internalType": "uint256",
              "name": "deadline",
              "type": "uint256"
            },
            {
              "internalType": "bytes",
              "name": "payload",
              "type": "bytes"
            },
            {
              "internalType": "bytes",
              "name": "metadata",
              "type": "bytes"
            }
          ],
          "internalType": "struct IGateway.Voucher",
          "name": "voucher",
          "type": "tuple"
        }
      ],
      "stateMutability": "view",
      "type": "function"
    },
    {
      "inputs": [
        {
          "internalType": "uint256",
          "name": "nonce",
          "type": "uint256"
        },
        {
          "internalType": "uint256",
          "name": "deadline",
          "type": "uint256"
        },
        {
          "internalType": "address",
          "name": "from",
          "type": "address"
        },
        {
          "internalType": "address",
          "name": "to",
          "type": "address"
        },
        {
          "internalType": "uint256",
          "name": "amount",
          "type": "uint256"
        },
        {
          "internalType": "bytes",
          "name": "metadata",
          "type": "bytes"
        }
      ],
      "name": "buildTransferFromVoucher",
      "outputs": [
        {
          "components": [
            {
              "internalType": "uint32",
              "name": "tag",
              "type": "uint32"
            },
            {
              "internalType": "uint256",
              "name": "nonce",
              "type": "uint256"
            },
            {
              "internalType": "uint256",
              "name": "deadline",
              "type": "uint256"
            },
            {
              "internalType": "bytes",
              "name": "payload",
              "type": "bytes"
            },
            {
              "internalType": "bytes",
              "name": "metadata",
              "type": "bytes"
            }
          ],
          "internalType": "struct IGateway.Voucher",
          "name": "voucher",
          "type": "tuple"
        }
      ],
      "stateMutability": "pure",
      "type": "function"
    },
    {
      "inputs": [
        {
          "internalType": "uint256",
          "name": "nonce",
          "type": "uint256"
        },
        {
          "internalType": "address",
          "name": "from",
          "type": "address"
        },
        {
          "internalType": "address",
          "name": "to",
          "type": "address"
        },
        {
          "internalType": "uint256",
          "name": "amount",
          "type": "uint256"
        },
        {
          "internalType": "bytes",
          "name": "metadata",
          "type": "bytes"
        }
      ],
      "name": "buildTransferFromVoucher",
      "outputs": [
        {
          "components": [
            {
              "internalType": "uint32",
              "name": "tag",
              "type": "uint32"
            },
            {
              "internalType": "uint256",
              "name": "nonce",
              "type": "uint256"
            },
            {
              "internalType": "uint256",
              "name": "deadline",
              "type": "uint256"
            },
            {
              "internalType": "bytes",
              "name": "payload",
              "type": "bytes"
            },
            {
              "internalType": "bytes",
              "name": "metadata",
              "type": "bytes"
            }
          ],
          "internalType": "struct IGateway.Voucher",
          "name": "voucher",
          "type": "tuple"
        }
      ],
      "stateMutability": "view",
      "type": "function"
    },
    {
      "inputs": [
        {
          "components": [
            {
              "internalType": "uint32",
              "name": "tag",
              "type": "uint32"
            },
            {
              "internalType": "uint256",
              "name": "nonce",
              "type": "uint256"
            },
            {
              "internalType": "uint256",
              "name": "deadline",
              "type": "uint256"
            },
            {
              "internalType": "bytes",
              "name": "payload",
              "type": "bytes"
            },
            {
              "internalType": "bytes",
              "name": "metadata",
              "type": "bytes"
            }
          ],
          "internalType": "struct IGateway.Voucher",
          "name": "voucher",
          "type": "tuple"
        }
      ],
      "name": "hashVoucher",
      "outputs": [
        {
          "internalType": "bytes32",
          "name": "voucherHash",
          "type": "bytes32"
        }
      ],
      "stateMutability": "view",
      "type": "function"
    },
    {
      "inputs": [
        {
          "internalType": "bytes[]",
          "name": "data",
          "type": "bytes[]"
        }
      ],
      "name": "multicall",
      "outputs": [
        {
          "internalType": "bytes[]",
          "name": "results",
          "type": "bytes[]"
        }
      ],
      "stateMutability": "nonpayable",
      "type": "function"
    },
    {
      "inputs": [
        {
          "components": [
            {
              "internalType": "uint32",
              "name": "tag",
              "type": "uint32"
            },
            {
              "internalType": "uint256",
              "name": "nonce",
              "type": "uint256"
            },
            {
              "internalType": "uint256",
              "name": "deadline",
              "type": "uint256"
            },
            {
              "internalType": "bytes",
              "name": "payload",
              "type": "bytes"
            },
            {
              "internalType": "bytes",
              "name": "metadata",
              "type": "bytes"
            }
          ],
          "internalType": "struct IGateway.Voucher",
          "name": "voucher",
          "type": "tuple"
        },
        {
          "internalType": "bytes",
          "name": "signature",
          "type": "bytes"
        }
      ],
      "name": "serveVoucher",
      "outputs": [],
      "stateMutability": "nonpayable",
      "type": "function"
    },
    {
      "inputs": [
        {
          "components": [
            {
              "internalType": "uint32",
              "name": "tag",
              "type": "uint32"
            },
            {
              "internalType": "uint256",
              "name": "nonce",
              "type": "uint256"
            },
            {
              "internalType": "uint256",
              "name": "deadline",
              "type": "uint256"
            },
            {
              "internalType": "bytes",
              "name": "payload",
              "type": "bytes"
            },
            {
              "internalType": "bytes",
              "name": "metadata",
              "type": "bytes"
            }
          ],
          "internalType": "struct IGateway.Voucher",
          "name": "voucher",
          "type": "tuple"
        },
        {
          "internalType": "bytes32",
          "name": "r",
          "type": "bytes32"
        },
        {
          "internalType": "bytes32",
          "name": "s",
          "type": "bytes32"
        },
        {
          "internalType": "uint8",
          "name": "v",
          "type": "uint8"
        }
      ],
      "name": "serveVoucher",
      "outputs": [],
      "stateMutability": "nonpayable",
      "type": "function"
    },
    {
      "inputs": [
        {
          "components": [
            {
              "internalType": "uint32",
              "name": "tag",
              "type": "uint32"
            },
            {
              "internalType": "uint256",
              "name": "nonce",
              "type": "uint256"
            },
            {
              "internalType": "uint256",
              "name": "deadline",
              "type": "uint256"
            },
            {
              "internalType": "bytes",
              "name": "payload",
              "type": "bytes"
            },
            {
              "internalType": "bytes",
              "name": "metadata",
              "type": "bytes"
            }
          ],
          "internalType": "struct IGateway.Voucher",
          "name": "voucher",
          "type": "tuple"
        }
      ],
      "name": "stringifyVoucher",
      "outputs": [
        {
          "internalType": "string",
          "name": "voucherString",
          "type": "string"
        }
      ],
      "stateMutability": "view",
      "type": "function"
    },
    {
      "inputs": [
        {
          "internalType": "bytes4",
          "name": "interfaceId",
          "type": "bytes4"
        }
      ],
      "name": "supportsInterface",
      "outputs": [
        {
          "internalType": "bool",
          "name": "",
          "type": "bool"
        }
      ],
      "stateMutability": "view",
      "type": "function"
    },
    {
      "inputs": [],
      "name": "token",
      "outputs": [
        {
          "internalType": "address",
          "name": "",
          "type": "address"
        }
      ],
      "stateMutability": "view",
      "type": "function"
    },
    {
      "inputs": [
        {
          "components": [
            {
              "internalType": "uint32",
              "name": "tag",
              "type": "uint32"
            },
            {
              "internalType": "uint256",
              "name": "nonce",
              "type": "uint256"
            },
            {
              "internalType": "uint256",
              "name": "deadline",
              "type": "uint256"
            },
            {
              "internalType": "bytes",
              "name": "payload",
              "type": "bytes"
            },
            {
              "internalType": "bytes",
              "name": "metadata",
              "type": "bytes"
            }
          ],
          "internalType": "struct IGateway.Voucher",
          "name": "voucher",
          "type": "tuple"
        },
        {
          "internalType": "bytes",
          "name": "signature",
          "type": "bytes"
        }
      ],
      "name": "validateVoucher",
      "outputs": [],
      "stateMutability": "view",
      "type": "function"
    },
    {
      "inputs": [
        {
          "components": [
            {
              "internalType": "uint32",
              "name": "tag",
              "type": "uint32"
            },
            {
              "internalType": "uint256",
              "name": "nonce",
              "type": "uint256"
            },
            {
              "internalType": "uint256",
              "name": "deadline",
              "type": "uint256"
            },
            {
              "internalType": "bytes",
              "name": "payload",
              "type": "bytes"
            },
            {
              "internalType": "bytes",
              "name": "metadata",
              "type": "bytes"
            }
          ],
          "internalType": "struct IGateway.Voucher",
          "name": "voucher",
          "type": "tuple"
        },
        {
          "internalType": "bytes32",
          "name": "r",
          "type": "bytes32"
        },
        {
          "internalType": "bytes32",
          "name": "s",
          "type": "bytes32"
        },
        {
          "internalType": "uint8",
          "name": "v",
          "type": "uint8"
        }
      ],
      "name": "validateVoucher",
      "outputs": [],
      "stateMutability": "view",
      "type": "function"
    },
    {
      "inputs": [
        {
          "internalType": "bytes32",
          "name": "",
          "type": "bytes32"
        }
      ],
      "name": "voucherServed",
      "outputs": [
        {
          "internalType": "bool",
          "name": "",
          "type": "bool"
        }
      ],
      "stateMutability": "view",
      "type": "function"
    }
  ],
  "transactionHash": "0x1e149a654eb742ec9fb483cb3f9a5ec30f572c81f43fff1c8f548891e87057c0",
  "args": [
    "0x78a486306D15E7111cca541F2f1307a1cFCaF5C4"
  ],
  "numDeployments": 1,
  "solcInputHash": "1182a3d2c1bbee992e9c52287ae9d73e",
  "bytecode": "0x60a06040523480156200001157600080fd5b5060405162005173380380620051738339810160408190526200003491620010a8565b600160008181556001600160a01b038316608052604080516060810182526200019b602090811b62000aed176001600160401b039081168352620004bb821b62000e2e178116828401908152620004e4831b62000e5317821694840194855263f7d48c1c909552949052517f49a79b7d5db675c9435a3559442313c2851e81b9c22766069ab5f7a93c9574368054935192518516600160801b02600160801b600160c01b031993861668010000000000000000026001600160801b03199095169290951691909117929092171691909117905580620001937f77ed603f8652441f01366c10fab285b166be94dd5c89e1dcd972a451dda1827d60e01c6040518060600160405280620005ad60201b62000eb8176001600160401b0316815260200162000b4060201b620014a3176001600160401b0316815260200162000b6160201b620014c0176001600160401b03168152506200053a60201b60201c565b505062001793565b60606000620001ad83830184620010c8565b810190620001bc91906200112e565b8051604051632b65311f60e11b81526001600160a01b039091166004820152909150731E232D4c772C2A9849aDf2D979201DAbd2c19763906356ca623e90602401600060405180830381865af41580156200021b573d6000803e3d6000fd5b505050506040513d6000823e601f3d908101601f19168201604052620002459190810190620011c6565b60405160200162000257919062001273565b60408051808303601f19018152908290526020830151632b65311f60e11b83526001600160a01b0316600483015290731E232D4c772C2A9849aDf2D979201DAbd2c19763906356ca623e90602401600060405180830381865af4158015620002c3573d6000803e3d6000fd5b505050506040513d6000823e601f3d908101601f19168201604052620002ed9190810190620011c6565b604051602001620002ff9190620012ae565b6040516020818303038152906040526080516001600160a01b03166395d89b416040518163ffffffff1660e01b8152600401600060405180830381865afa1580156200034f573d6000803e3d6000fd5b505050506040513d6000823e601f3d908101601f19168201604052620003799190810190620011c6565b8360400151731E232D4c772C2A9849aDf2D979201DAbd2c1976363338dc7fd90916080516001600160a01b031663313ce5676040518163ffffffff1660e01b8152600401602060405180830381865afa158015620003db573d6000803e3d6000fd5b505050506040513d601f19601f82011682018060405250810190620004019190620012f7565b6040516001600160e01b031960e085901b168152600481019290925260ff166024820152604401600060405180830381865af415801562000446573d6000803e3d6000fd5b505050506040513d6000823e601f3d908101601f19168201604052620004709190810190620011c6565b6040516020016200048392919062001317565b60408051601f1981840301815290829052620004a49392916020016200136b565b604051602081830303815290604052915050919050565b600080620004cd6060840184620010c8565b810190620004dc91906200112e565b519392505050565b6000620004f56060830183620010c8565b8101906200050491906200112e565b8051602080830151604084015160805194955062000536946001600160a01b031693926200153962000bce821b17901c565b5050565b63ffffffff909116600090815260016020908152604091829020835181549285015193909401516001600160401b03908116600160801b02600160801b600160c01b031994821668010000000000000000026001600160801b031990941691909516179190911791909116919091179055565b60606000620005bf83830184620010c8565b810190620005ce9190620013d4565b8051604051632b65311f60e11b81526001600160a01b039091166004820152909150731E232D4c772C2A9849aDf2D979201DAbd2c19763906356ca623e90602401600060405180830381865af41580156200062d573d6000803e3d6000fd5b505050506040513d6000823e601f3d908101601f19168201604052620006579190810190620011c6565b6040516020016200066991906200147b565b60408051808303601f19018152908290526020830151632b65311f60e11b83526001600160a01b0316600483015290731E232D4c772C2A9849aDf2D979201DAbd2c19763906356ca623e90602401600060405180830381865af4158015620006d5573d6000803e3d6000fd5b505050506040513d6000823e601f3d908101601f19168201604052620006ff9190810190620011c6565b604051602001620007119190620014b7565b6040516020818303038152906040526080516001600160a01b03166395d89b416040518163ffffffff1660e01b8152600401600060405180830381865afa15801562000761573d6000803e3d6000fd5b505050506040513d6000823e601f3d908101601f191682016040526200078b9190810190620011c6565b8360400151731E232D4c772C2A9849aDf2D979201DAbd2c1976363338dc7fd90916080516001600160a01b031663313ce5676040518163ffffffff1660e01b8152600401602060405180830381865afa158015620007ed573d6000803e3d6000fd5b505050506040513d601f19601f82011682018060405250810190620008139190620012f7565b6040516001600160e01b031960e085901b168152600481019290925260ff166024820152604401600060405180830381865af415801562000858573d6000803e3d6000fd5b505050506040513d6000823e601f3d908101601f19168201604052620008829190810190620011c6565b60405160200162000895929190620014f5565b60408051808303601f19018152908290526060850151634b2dd51960e01b835264ffffffffff16600483015290731E232D4c772C2A9849aDf2D979201DAbd2c1976390634b2dd51990602401600060405180830381865af4158015620008ff573d6000803e3d6000fd5b505050506040513d6000823e601f3d908101601f19168201604052620009299190810190620011c6565b6040516020016200093b919062001556565b60408051808303601f1901815290829052608086015163348051d760e11b835260ff16600483015290731E232D4c772C2A9849aDf2D979201DAbd2c1976390636900a3ae90602401600060405180830381865af4158015620009a1573d6000803e3d6000fd5b505050506040513d6000823e601f3d908101601f19168201604052620009cb9190810190620011c6565b604051602001620009dd919062001595565b60408051808303601f190181529082905260a0870151631623433d60e31b8352600483015290731E232D4c772C2A9849aDf2D979201DAbd2c197639063b11a19e890602401600060405180830381865af415801562000a40573d6000803e3d6000fd5b505050506040513d6000823e601f3d908101601f1916820160405262000a6a9190810190620011c6565b60405160200162000a7c9190620015cd565b60408051808303601f190181529082905260c0880151631623433d60e31b8352600483015290731E232D4c772C2A9849aDf2D979201DAbd2c197639063b11a19e890602401600060405180830381865af415801562000adf573d6000803e3d6000fd5b505050506040513d6000823e601f3d908101601f1916820160405262000b099190810190620011c6565b60405160200162000b1b9190620015ed565b60408051601f1981840301815290829052620004a4979695949392916020016200161a565b60008062000b526060840184620010c8565b810190620004dc9190620013d4565b600062000b726060830183620010c8565b81019062000b819190620013d4565b80516020808301516040840151606085015160808087015160a088015160c0890151925198995062000536986001600160a01b0316979691929091620015c162000c34821b17901c565b50565b604080516001600160a01b0385811660248301528416604482015260648082018490528251808303909101815260849091019091526020810180516001600160e01b039081166323b872dd60e01b1790915262000c2e91869162000e1a16565b50505050565b604051623f675f60e91b81526001600160a01b038881166004830152600091908a1690637ecebe0090602401602060405180830381865afa15801562000c7e573d6000803e3d6000fd5b505050506040513d601f19601f8201168201806040525081019062000ca49190620016da565b60405163d505accf60e01b81526001600160a01b038a811660048301528981166024830152604482018990526064820188905260ff8716608483015260a4820186905260c48201859052919250908a169063d505accf9060e401600060405180830381600087803b15801562000d1957600080fd5b505af115801562000d2e573d6000803e3d6000fd5b5050604051623f675f60e91b81526001600160a01b038b81166004830152600093508c169150637ecebe0090602401602060405180830381865afa15801562000d7b573d6000803e3d6000fd5b505050506040513d601f19601f8201168201806040525081019062000da19190620016da565b905062000db0826001620016f4565b811462000e0e5760405162461bcd60e51b815260206004820152602160248201527f5361666545524332303a207065726d697420646964206e6f74207375636365656044820152601960fa1b60648201526084015b60405180910390fd5b50505050505050505050565b600062000e76826040518060400160405280602081526020017f5361666545524332303a206c6f772d6c6576656c2063616c6c206661696c6564815250856001600160a01b031662000efd60201b62001800179092919060201c565b80519091501562000ef8578080602001905181019062000e9791906200171c565b62000ef85760405162461bcd60e51b815260206004820152602a60248201527f5361666545524332303a204552433230206f7065726174696f6e20646964206e6044820152691bdd081cdd58d8d9595960b21b606482015260840162000e05565b505050565b606062000f0e848460008562000f18565b90505b9392505050565b60608247101562000f7b5760405162461bcd60e51b815260206004820152602660248201527f416464726573733a20696e73756666696369656e742062616c616e636520666f6044820152651c8818d85b1b60d21b606482015260840162000e05565b6001600160a01b0385163b62000fd45760405162461bcd60e51b815260206004820152601d60248201527f416464726573733a2063616c6c20746f206e6f6e2d636f6e7472616374000000604482015260640162000e05565b600080866001600160a01b0316858760405162000ff2919062001740565b60006040518083038185875af1925050503d806000811462001031576040519150601f19603f3d011682016040523d82523d6000602084013e62001036565b606091505b5090925090506200104982828662001054565b979650505050505050565b606083156200106557508162000f11565b825115620010765782518084602001fd5b8160405162461bcd60e51b815260040162000e0591906200175e565b6001600160a01b038116811462000bcb57600080fd5b600060208284031215620010bb57600080fd5b815162000f118162001092565b6000808335601e19843603018112620010e057600080fd5b8301803591506001600160401b03821115620010fb57600080fd5b6020019150368190038213156200111157600080fd5b9250929050565b634e487b7160e01b600052604160045260246000fd5b6000606082840312156200114157600080fd5b604051606081016001600160401b038111828210171562001166576200116662001118565b6040528235620011768162001092565b81526020830135620011888162001092565b60208201526040928301359281019290925250919050565b60005b83811015620011bd578181015183820152602001620011a3565b50506000910152565b600060208284031215620011d957600080fd5b81516001600160401b0380821115620011f157600080fd5b818401915084601f8301126200120657600080fd5b8151818111156200121b576200121b62001118565b604051601f8201601f19908116603f0116810190838211818310171562001246576200124662001118565b816040528281528760208487010111156200126057600080fd5b62001049836020830160208801620011a0565b650333937b69d160d51b81526000825162001296816006850160208701620011a0565b600560f91b6006939091019283015250600701919050565b6303a379d160e51b815260008251620012cf816004850160208701620011a0565b600560f91b6004939091019283015250600501919050565b60ff8116811462000bcb57600080fd5b6000602082840312156200130a57600080fd5b815162000f1181620012e7565b67030b6b7bab73a1d160c51b8152600083516200133c816008850160208801620011a0565b600160fd1b60089184019182015283516200135f816009840160208801620011a0565b01600901949350505050565b6c2a3930b739b332b9233937b68560991b815283516000906200139681600d850160208901620011a0565b845190830190620013af81600d840160208901620011a0565b8451910190620013c781600d840160208801620011a0565b01600d0195945050505050565b600060e08284031215620013e757600080fd5b60405160e081016001600160401b03811182821017156200140c576200140c62001118565b60405282356200141c8162001092565b815260208301356200142e8162001092565b80602083015250604083013560408201526060830135606082015260808301356200145981620012e7565b608082015260a0838101359082015260c0928301359281019290925250919050565b66037bbb732b91d160cd1b8152600082516200149f816007850160208701620011a0565b600560f91b6007939091019283015250600801919050565b68039b832b73232b91d160bd1b815260008251620014dd816009850160208701620011a0565b600560f91b6009939091019283015250600a01919050565b6603b30b63ab29d160cd1b81526000835162001519816007850160208801620011a0565b600160fd1b60079184019182015283516200153c816008840160208801620011a0565b600560f91b60089290910191820152600901949350505050565b6903232b0b23634b7329d160b51b8152600082516200157d81600a850160208701620011a0565b600560f91b600a939091019283015250600b01919050565b6203b1d160ed1b815260008251620015b5816003850160208701620011a0565b600560f91b6003939091019283015250600401919050565b620391d160ed1b815260008251620015b5816003850160208701620011a0565b620399d160ed1b8152600082516200160d816003850160208701620011a0565b9190910160030192915050565b662832b936b4ba0560c91b815260006007895160206200164082848701838f01620011a0565b8a51918501916200165781858501848f01620011a0565b8a519201916200166d81858501848e01620011a0565b89519201916200168381858501848d01620011a0565b88519201916200169981858501848c01620011a0565b8751920191620016af81858501848b01620011a0565b8651920191620016c581858501848a01620011a0565b919091019091019a9950505050505050505050565b600060208284031215620016ed57600080fd5b5051919050565b808201808211156200171657634e487b7160e01b600052601160045260246000fd5b92915050565b6000602082840312156200172f57600080fd5b8151801515811462000f1157600080fd5b6000825162001754818460208701620011a0565b9190910192915050565b60208152600082518060208401526200177f816040850160208701620011a0565b601f01601f19169190910160400192915050565b60805161399a620017d96000396000818161037601528181610c5401528181610cfb01528181610e8c0152818161101f015281816110c6015261150d015261399a6000f3fe608060405234801561001057600080fd5b50600436106101775760003560e01c806385715b67116100d8578063a85aa6641161008c578063d85116bb11610066578063d85116bb1461034b578063f5075a761461035e578063fc0c546a1461037157600080fd5b8063a85aa664146102f8578063ac9650d814610318578063cafac7501461033857600080fd5b806394739e87116100bd57806394739e87146102b35780639c38853e146102da578063a1a02940146102ed57600080fd5b806385715b671461027d57806389a7f48e1461029057600080fd5b80635d6ffc931161012f578063651c51e111610114578063651c51e11461023457806379ea45ac146102495780637d561b101461026a57600080fd5b80635d6ffc931461020157806360734bd81461021457600080fd5b80630a66a442116101605780630a66a442146101c85780630b5e6d28146101db5780632acbad69146101ee57600080fd5b80630182aebc1461017c57806301ffc9a7146101a5575b600080fd5b61018f61018a3660046127f6565b6103b0565b60405161019c9190612894565b60405180910390f35b6101b86101b33660046128f1565b61040f565b604051901515815260200161019c565b61018f6101d636600461296c565b610453565b61018f6101e9366004612a18565b6104ed565b61018f6101fc366004612acf565b61057d565b61018f61020f366004612b13565b6105e6565b61021f63f7d48c1c81565b60405163ffffffff909116815260200161019c565b610247610242366004612bad565b61066e565b005b61025c610257366004612c16565b6106b3565b60405190815260200161019c565b61018f610278366004612c53565b6106be565b61024761028b366004612bad565b61072f565b6101b861029e366004612cc9565b60026020526000908152604090205460ff1681565b61025c7f3c4eccc58df3b1fa05ba717589f6675a1af0cfee2fe59126957513d39f45d1ce81565b6102476102e8366004612ce2565b6107d8565b61021f6377ed603f81565b61030b610306366004612c16565b610894565b60405161019c9190612d45565b61032b610326366004612d58565b61089f565b60405161019c9190612dcd565b61018f610346366004612e4d565b610994565b610247610359366004612ce2565b6109fb565b61018f61036c366004612ecf565b610a5b565b6103987f000000000000000000000000000000000000000000000000000000000000000081565b6040516001600160a01b03909116815260200161019c565b6103e86040518060a00160405280600063ffffffff168152602001600081526020016000815260200160608152602001606081525090565b610405868686868660405180602001604052806000815250611819565b9695505050505050565b60006001600160e01b031982167f17343c6a00000000000000000000000000000000000000000000000000000000148061044d575061044d826118d2565b92915050565b61048b6040518060a00160405280600063ffffffff168152602001600081526020016000815260200160608152602001606081525090565b6104de8b61049b42610e10612f5d565b8c8c8c8c8c8c8c8c8c8080601f01602080910402602001604051908101604052809392919081815260200183838082843760009201919091525061191092505050565b9b9a5050505050505050505050565b6105256040518060a00160405280600063ffffffff168152602001600081526020016000815260200160608152602001606081525090565b61056d8c8c8c8c8c8c8c8c8c8c8c8080601f01602080910402602001604051908101604052809392919081815260200183838082843760009201919091525061191092505050565b9c9b505050505050505050505050565b6105b56040518060a00160405280600063ffffffff168152602001600081526020016000815260200160608152602001606081525090565b6105dd856105c542610e10612f5d565b86868660405180602001604052806000815250611819565b95945050505050565b61061e6040518060a00160405280600063ffffffff168152602001600081526020016000815260200160608152602001606081525090565b610662888888888888888080601f01602080910402602001604051908101604052809392919081815260200183838082843760009201919091525061181992505050565b98975050505050505050565b6106ae8383838080601f016020809104026020016040519081016040528093929190818152602001838380828437600092019190915250611a6692505050565b505050565b600061044d82611b47565b6106f66040518060a00160405280600063ffffffff168152602001600081526020016000815260200160608152602001606081525090565b6107228961070642610e10612f5d565b8a8a8a8a8a8a8a60405180602001604052806000815250611910565b9998505050505050505050565b6002600054036107865760405162461bcd60e51b815260206004820152601f60248201527f5265656e7472616e637947756172643a207265656e7472616e742063616c6c0060448201526064015b60405180910390fd5b60026000819055506107ce8383838080601f016020809104026020016040519081016040528093929190818152602001838380828437600092019190915250611b6092505050565b5050600160005550565b60026000540361082a5760405162461bcd60e51b815260206004820152601f60248201527f5265656e7472616e637947756172643a207265656e7472616e742063616c6c00604482015260640161077d565b600260005560408051602081018590528082018490527fff0000000000000000000000000000000000000000000000000000000000000060f884901b166060820152815180820360410181526061909101909152610889908590611b60565b505060016000555050565b606061044d82611c5a565b60608167ffffffffffffffff8111156108ba576108ba612f70565b6040519080825280602002602001820160405280156108ed57816020015b60608152602001906001900390816108d85790505b50905060005b8281101561098d5761095d3085858481811061091157610911612f86565b90506020028101906109239190612f9c565b8080601f01602080910402602001604051908101604052809392919081815260200183838082843760009201919091525061209492505050565b82828151811061096f5761096f612f86565b6020026020010181905250808061098590613001565b9150506108f3565b5092915050565b6109cc6040518060a00160405280600063ffffffff168152602001600081526020016000815260200160608152602001606081525090565b6109ed8a8a8a8a8a8a8a8a8a60405180602001604052806000815250611910565b9a9950505050505050505050565b60408051602081018590528082018490527fff0000000000000000000000000000000000000000000000000000000000000060f884901b166060820152815180820360410181526061909101909152610a55908590611a66565b50505050565b610a936040518060a00160405280600063ffffffff168152602001600081526020016000815260200160608152602001606081525090565b610ae287610aa342610e10612f5d565b88888888888080601f01602080910402602001604051908101604052809392919081815260200183838082843760009201919091525061181992505050565b979650505050505050565b60606000610afd83830184612f9c565b810190610b0a9190613039565b8051604051632b65311f60e11b81526001600160a01b039091166004820152909150731E232D4c772C2A9849aDf2D979201DAbd2c19763906356ca623e90602401600060405180830381865af4158015610b68573d6000803e3d6000fd5b505050506040513d6000823e601f3d908101601f19168201604052610b9091908101906130a1565b604051602001610ba09190613143565b60408051808303601f19018152908290526020830151632b65311f60e11b83526001600160a01b0316600483015290731E232D4c772C2A9849aDf2D979201DAbd2c19763906356ca623e90602401600060405180830381865af4158015610c0b573d6000803e3d6000fd5b505050506040513d6000823e601f3d908101601f19168201604052610c3391908101906130a1565b604051602001610c439190613193565b6040516020818303038152906040527f00000000000000000000000000000000000000000000000000000000000000006001600160a01b03166395d89b416040518163ffffffff1660e01b8152600401600060405180830381865afa158015610cb0573d6000803e3d6000fd5b505050506040513d6000823e601f3d908101601f19168201604052610cd891908101906130a1565b8360400151731E232D4c772C2A9849aDf2D979201DAbd2c1976363338dc7fd90917f00000000000000000000000000000000000000000000000000000000000000006001600160a01b031663313ce5676040518163ffffffff1660e01b8152600401602060405180830381865afa158015610d57573d6000803e3d6000fd5b505050506040513d601f19601f82011682018060405250810190610d7b91906131e3565b6040516001600160e01b031960e085901b168152600481019290925260ff166024820152604401600060405180830381865af4158015610dbf573d6000803e3d6000fd5b505050506040513d6000823e601f3d908101601f19168201604052610de791908101906130a1565b604051602001610df8929190613200565b60408051601f1981840301815290829052610e17939291602001613281565b604051602081830303815290604052915050919050565b600080610e3e6060840184612f9c565b810190610e4b9190613039565b519392505050565b6000610e626060830183612f9c565b810190610e6f9190613039565b805160208201516040830151929350610eb4926001600160a01b037f000000000000000000000000000000000000000000000000000000000000000016929190611539565b5050565b60606000610ec883830184612f9c565b810190610ed591906132f3565b8051604051632b65311f60e11b81526001600160a01b039091166004820152909150731E232D4c772C2A9849aDf2D979201DAbd2c19763906356ca623e90602401600060405180830381865af4158015610f33573d6000803e3d6000fd5b505050506040513d6000823e601f3d908101601f19168201604052610f5b91908101906130a1565b604051602001610f6b919061338b565b60408051808303601f19018152908290526020830151632b65311f60e11b83526001600160a01b0316600483015290731E232D4c772C2A9849aDf2D979201DAbd2c19763906356ca623e90602401600060405180830381865af4158015610fd6573d6000803e3d6000fd5b505050506040513d6000823e601f3d908101601f19168201604052610ffe91908101906130a1565b60405160200161100e91906133db565b6040516020818303038152906040527f00000000000000000000000000000000000000000000000000000000000000006001600160a01b03166395d89b416040518163ffffffff1660e01b8152600401600060405180830381865afa15801561107b573d6000803e3d6000fd5b505050506040513d6000823e601f3d908101601f191682016040526110a391908101906130a1565b8360400151731E232D4c772C2A9849aDf2D979201DAbd2c1976363338dc7fd90917f00000000000000000000000000000000000000000000000000000000000000006001600160a01b031663313ce5676040518163ffffffff1660e01b8152600401602060405180830381865afa158015611122573d6000803e3d6000fd5b505050506040513d601f19601f8201168201806040525081019061114691906131e3565b6040516001600160e01b031960e085901b168152600481019290925260ff166024820152604401600060405180830381865af415801561118a573d6000803e3d6000fd5b505050506040513d6000823e601f3d908101601f191682016040526111b291908101906130a1565b6040516020016111c392919061342b565b60408051808303601f190181529082905260608501517f4b2dd51900000000000000000000000000000000000000000000000000000000835264ffffffffff16600483015290731E232D4c772C2A9849aDf2D979201DAbd2c1976390634b2dd51990602401600060405180830381865af4158015611245573d6000803e3d6000fd5b505050506040513d6000823e601f3d908101601f1916820160405261126d91908101906130a1565b60405160200161127d91906134ba565b60408051808303601f1901815290829052608086015163348051d760e11b835260ff16600483015290731E232D4c772C2A9849aDf2D979201DAbd2c1976390636900a3ae90602401600060405180830381865af41580156112e2573d6000803e3d6000fd5b505050506040513d6000823e601f3d908101601f1916820160405261130a91908101906130a1565b60405160200161131a919061350a565b60408051808303601f190181529082905260a08701517fb11a19e8000000000000000000000000000000000000000000000000000000008352600483015290731E232D4c772C2A9849aDf2D979201DAbd2c197639063b11a19e890602401600060405180830381865af4158015611395573d6000803e3d6000fd5b505050506040513d6000823e601f3d908101601f191682016040526113bd91908101906130a1565b6040516020016113cd919061355a565b60408051808303601f190181529082905260c08801517fb11a19e8000000000000000000000000000000000000000000000000000000008352600483015290731E232D4c772C2A9849aDf2D979201DAbd2c197639063b11a19e890602401600060405180830381865af4158015611448573d6000803e3d6000fd5b505050506040513d6000823e601f3d908101601f1916820160405261147091908101906130a1565b6040516020016114809190613592565b60408051601f1981840301815290829052610e17979695949392916020016135d7565b6000806114b36060840184612f9c565b810190610e4b91906132f3565b60006114cf6060830183612f9c565b8101906114dc91906132f3565b8051602082015160408301516060840151608085015160a086015160c0870151969750610eb4966001600160a01b037f000000000000000000000000000000000000000000000000000000000000000016969594939291906115c1565b604080516001600160a01b0385811660248301528416604482015260648082018490528251808303909101815260849091019091526020810180517bffffffffffffffffffffffffffffffffffffffffffffffffffffffff167f23b872dd00000000000000000000000000000000000000000000000000000000179052610a559085906120bc565b6040517f7ecebe000000000000000000000000000000000000000000000000000000000081526001600160a01b038881166004830152600091908a1690637ecebe0090602401602060405180830381865afa158015611624573d6000803e3d6000fd5b505050506040513d601f19601f82011682018060405250810190611648919061369f565b6040517fd505accf0000000000000000000000000000000000000000000000000000000081526001600160a01b038a811660048301528981166024830152604482018990526064820188905260ff8716608483015260a4820186905260c48201859052919250908a169063d505accf9060e401600060405180830381600087803b1580156116d557600080fd5b505af11580156116e9573d6000803e3d6000fd5b50506040517f7ecebe000000000000000000000000000000000000000000000000000000000081526001600160a01b038b81166004830152600093508c169150637ecebe0090602401602060405180830381865afa15801561174f573d6000803e3d6000fd5b505050506040513d601f19601f82011682018060405250810190611773919061369f565b9050611780826001612f5d565b81146117f45760405162461bcd60e51b815260206004820152602160248201527f5361666545524332303a207065726d697420646964206e6f742073756363656560448201527f6400000000000000000000000000000000000000000000000000000000000000606482015260840161077d565b50505050505050505050565b606061180f84846000856121a1565b90505b9392505050565b6118516040518060a00160405280600063ffffffff168152602001600081526020016000815260200160608152602001606081525090565b506040805160a08101825263f7d48c1c8152602080820198909852808201969096528051606080820183526001600160a01b03968716808352958716828a0190815291830194855282519889019590955251909416868501529051858301528251808603830181526080958601909352908301919091529181019190915290565b60006001600160e01b031982167f1f5eba8200000000000000000000000000000000000000000000000000000000148061044d575061044d826122de565b6119486040518060a00160405280600063ffffffff168152602001600081526020016000815260200160608152602001606081525090565b6040518060a001604052807f77ed603f8652441f01366c10fab285b166be94dd5c89e1dcd972a451dda1827d60e01c63ffffffff1681526020018c81526020018b81526020016040518060e001604052808c6001600160a01b031681526020018b6001600160a01b031681526020018a81526020018981526020018860ff16815260200187815260200186815250604051602001611a3f9190600060e0820190506001600160a01b0380845116835280602085015116602084015250604083015160408301526060830151606083015260ff608084015116608083015260a083015160a083015260c083015160c083015292915050565b60408051601f19818403018152919052815260200192909252509998505050505050505050565b611a81611a7283612345565b611a7b84611b47565b8361238a565b611af35760405162461bcd60e51b815260206004820152602260248201527f476174657761793a20696e76616c696420766f7563686572207369676e61747560448201527f7265000000000000000000000000000000000000000000000000000000000000606482015260840161077d565b8160400135421115610eb45760405162461bcd60e51b815260206004820152601960248201527f476174657761793a206578706972656420646561646c696e6500000000000000604482015260640161077d565b6000611b5282611c5a565b805190602001209050919050565b611b6a8282611a66565b6000611b7583611b47565b60008181526002602052604090205490915060ff1615611bd75760405162461bcd60e51b815260206004820152601f60248201527f476174657761793a20766f756368657220616c72656164792073657276656400604482015260640161077d565b600081815260026020526040902080547fffffffffffffffffffffffffffffffffffffffffffffffffffffffffffffff00166001179055611c17836124f9565b807fd193a54dd0b0b5884cffc665f0803faa8d7f44280881b0a277878158bebd4c5d336040516001600160a01b03909116815260200160405180910390a2505050565b6060611c6582612545565b604051602001611c7591906136b8565b60408051601f19818403018152919052611c9260208401846136dd565b60405163348051d760e11b815263ffffffff9091166004820152731E232D4c772C2A9849aDf2D979201DAbd2c1976390636900a3ae90602401600060405180830381865af4158015611ce8573d6000803e3d6000fd5b505050506040513d6000823e601f3d908101601f19168201604052611d1091908101906130a1565b604051602001611d209190613703565b60408051808303601f190181529082905263348051d760e11b82526020850135600483015290731E232D4c772C2A9849aDf2D979201DAbd2c1976390636900a3ae90602401600060405180830381865af4158015611d82573d6000803e3d6000fd5b505050506040513d6000823e601f3d908101601f19168201604052611daa91908101906130a1565b604051602001611dba9190613753565b60408051808303601f190181528282527f4b2dd5190000000000000000000000000000000000000000000000000000000083529086013564ffffffffff16600483015290731E232D4c772C2A9849aDf2D979201DAbd2c1976390634b2dd51990602401600060405180830381865af4158015611e3a573d6000803e3d6000fd5b505050506040513d6000823e601f3d908101601f19168201604052611e6291908101906130a1565b604051602001611e7291906134ba565b60408051601f19818403018152919052611e8f6060870187612f9c565b8080601f016020809104026020016040519081016040528093929190818152602001838380828437600092019190915250506040517f71aad10d000000000000000000000000000000000000000000000000000000008152731E232D4c772C2A9849aDf2D979201DAbd2c19763936371aad10d9350611f12925090600401612d45565b600060405180830381865af4158015611f2f573d6000803e3d6000fd5b505050506040513d6000823e601f3d908101601f19168201604052611f5791908101906130a1565b604051602001611f67919061378b565b60408051601f19818403018152919052611f846080880188612f9c565b8080601f016020809104026020016040519081016040528093929190818152602001838380828437600092019190915250506040517f71aad10d000000000000000000000000000000000000000000000000000000008152731E232D4c772C2A9849aDf2D979201DAbd2c19763936371aad10d9350612007925090600401612d45565b600060405180830381865af4158015612024573d6000803e3d6000fd5b505050506040513d6000823e601f3d908101601f1916820160405261204c91908101906130a1565b60405160200161205c91906137c3565b60408051601f198184030181529082905261207e969594939291602001613808565b6040516020818303038152906040529050919050565b6060611812838360405180606001604052806027815260200161393e6027913961257f565b50565b6000612111826040518060400160405280602081526020017f5361666545524332303a206c6f772d6c6576656c2063616c6c206661696c6564815250856001600160a01b03166118009092919063ffffffff16565b8051909150156106ae578080602001905181019061212f91906138ba565b6106ae5760405162461bcd60e51b815260206004820152602a60248201527f5361666545524332303a204552433230206f7065726174696f6e20646964206e60448201527f6f74207375636365656400000000000000000000000000000000000000000000606482015260840161077d565b6060824710156122195760405162461bcd60e51b815260206004820152602660248201527f416464726573733a20696e73756666696369656e742062616c616e636520666f60448201527f722063616c6c0000000000000000000000000000000000000000000000000000606482015260840161077d565b6001600160a01b0385163b6122705760405162461bcd60e51b815260206004820152601d60248201527f416464726573733a2063616c6c20746f206e6f6e2d636f6e7472616374000000604482015260640161077d565b600080866001600160a01b0316858760405161228c91906138dc565b60006040518083038185875af1925050503d80600081146122c9576040519150601f19603f3d011682016040523d82523d6000602084013e6122ce565b606091505b5091509150610ae2828286612665565b60006001600160e01b031982167f686010c200000000000000000000000000000000000000000000000000000000148061044d57507f01ffc9a7000000000000000000000000000000000000000000000000000000006001600160e01b031983161461044d565b600061044d8260018361235b60208401846136dd565b63ffffffff908116825260208201929092526040016000205468010000000000000000900480156127d0021716565b6000806000612399858561269e565b909250905060008160048111156123b2576123b26138f8565b1480156123d05750856001600160a01b0316826001600160a01b0316145b156123e057600192505050611812565b600080876001600160a01b0316631626ba7e60e01b888860405160240161240892919061390e565b60408051601f198184030181529181526020820180517bffffffffffffffffffffffffffffffffffffffffffffffffffffffff166001600160e01b031990941693909317909252905161245b91906138dc565b600060405180830381855afa9150503d8060008114612496576040519150601f19603f3d011682016040523d82523d6000602084013e61249b565b606091505b50915091508180156124ae575080516020145b8015610662575080517f1626ba7e00000000000000000000000000000000000000000000000000000000906124ec908301602090810190840161369f565b1498975050505050505050565b6120b9816001600061250e60208401846136dd565b63ffffffff9081168252602082019290925260400160002054700100000000000000000000000000000000900480156127d0021716565b606061044d826001600061255c60208401846136dd565b63ffffffff90811682526020820192909252604001600020546127d08115021716565b60606001600160a01b0384163b6125fe5760405162461bcd60e51b815260206004820152602660248201527f416464726573733a2064656c65676174652063616c6c20746f206e6f6e2d636f60448201527f6e74726163740000000000000000000000000000000000000000000000000000606482015260840161077d565b600080856001600160a01b03168560405161261991906138dc565b600060405180830381855af49150503d8060008114612654576040519150601f19603f3d011682016040523d82523d6000602084013e612659565b606091505b50915091506104058282865b60608315612674575081611812565b8251156126845782518084602001fd5b8160405162461bcd60e51b815260040161077d9190612d45565b60008082516041036126d45760208301516040840151606085015160001a6126c8878285856126e3565b945094505050506126dc565b506000905060025b9250929050565b6000807f7fffffffffffffffffffffffffffffff5d576e7357a4501ddfe92f46681b20a083111561271a57506000905060036127c7565b8460ff16601b1415801561273257508460ff16601c14155b1561274357506000905060046127c7565b6040805160008082526020820180845289905260ff881692820192909252606081018690526080810185905260019060a0016020604051602081039080840390855afa158015612797573d6000803e3d6000fd5b5050604051601f1901519150506001600160a01b0381166127c0576000600192509250506127c7565b9150600090505b94509492505050565b6127d8613927565b565b80356001600160a01b03811681146127f157600080fd5b919050565b600080600080600060a0868803121561280e57600080fd5b8535945060208601359350612825604087016127da565b9250612833606087016127da565b949793965091946080013592915050565b60005b8381101561285f578181015183820152602001612847565b50506000910152565b60008151808452612880816020860160208601612844565b601f01601f19169290920160200192915050565b6020815263ffffffff825116602082015260208201516040820152604082015160608201526000606083015160a060808401526128d460c0840182612868565b90506080840151601f198483030160a08501526105dd8282612868565b60006020828403121561290357600080fd5b81356001600160e01b03198116811461181257600080fd5b60ff811681146120b957600080fd5b60008083601f84011261293c57600080fd5b50813567ffffffffffffffff81111561295457600080fd5b6020830191508360208285010111156126dc57600080fd5b6000806000806000806000806000806101208b8d03121561298c57600080fd5b8a35995061299c60208c016127da565b98506129aa60408c016127da565b975060608b0135965060808b0135955060a08b01356129c88161291b565b945060c08b0135935060e08b013592506101008b013567ffffffffffffffff8111156129f357600080fd5b6129ff8d828e0161292a565b915080935050809150509295989b9194979a5092959850565b60008060008060008060008060008060006101408c8e031215612a3a57600080fd5b8b359a5060208c01359950612a5160408d016127da565b9850612a5f60608d016127da565b975060808c0135965060a08c0135955060c08c0135612a7d8161291b565b945060e08c013593506101008c013592506101208c013567ffffffffffffffff811115612aa957600080fd5b612ab58e828f0161292a565b915080935050809150509295989b509295989b9093969950565b60008060008060808587031215612ae557600080fd5b84359350612af5602086016127da565b9250612b03604086016127da565b9396929550929360600135925050565b600080600080600080600060c0888a031215612b2e57600080fd5b8735965060208801359550612b45604089016127da565b9450612b53606089016127da565b93506080880135925060a088013567ffffffffffffffff811115612b7657600080fd5b612b828a828b0161292a565b989b979a50959850939692959293505050565b600060a08284031215612ba757600080fd5b50919050565b600080600060408486031215612bc257600080fd5b833567ffffffffffffffff80821115612bda57600080fd5b612be687838801612b95565b94506020860135915080821115612bfc57600080fd5b50612c098682870161292a565b9497909650939450505050565b600060208284031215612c2857600080fd5b813567ffffffffffffffff811115612c3f57600080fd5b612c4b84828501612b95565b949350505050565b600080600080600080600080610100898b031215612c7057600080fd5b88359750612c8060208a016127da565b9650612c8e60408a016127da565b9550606089013594506080890135935060a0890135612cac8161291b565b979a969950949793969295929450505060c08201359160e0013590565b600060208284031215612cdb57600080fd5b5035919050565b60008060008060808587031215612cf857600080fd5b843567ffffffffffffffff811115612d0f57600080fd5b612d1b87828801612b95565b94505060208501359250604085013591506060850135612d3a8161291b565b939692955090935050565b6020815260006118126020830184612868565b60008060208385031215612d6b57600080fd5b823567ffffffffffffffff80821115612d8357600080fd5b818501915085601f830112612d9757600080fd5b813581811115612da657600080fd5b8660208260051b8501011115612dbb57600080fd5b60209290920196919550909350505050565b6000602080830181845280855180835260408601915060408160051b870101925083870160005b82811015612e40577fffffffffffffffffffffffffffffffffffffffffffffffffffffffffffffffc0888603018452612e2e858351612868565b94509285019290850190600101612df4565b5092979650505050505050565b60008060008060008060008060006101208a8c031215612e6c57600080fd5b8935985060208a01359750612e8360408b016127da565b9650612e9160608b016127da565b955060808a0135945060a08a0135935060c08a0135612eaf8161291b565b8093505060e08a013591506101008a013590509295985092959850929598565b60008060008060008060a08789031215612ee857600080fd5b86359550612ef8602088016127da565b9450612f06604088016127da565b935060608701359250608087013567ffffffffffffffff811115612f2957600080fd5b612f3589828a0161292a565b979a9699509497509295939492505050565b634e487b7160e01b600052601160045260246000fd5b8082018082111561044d5761044d612f47565b634e487b7160e01b600052604160045260246000fd5b634e487b7160e01b600052603260045260246000fd5b60008083357fffffffffffffffffffffffffffffffffffffffffffffffffffffffffffffffe1843603018112612fd157600080fd5b83018035915067ffffffffffffffff821115612fec57600080fd5b6020019150368190038213156126dc57600080fd5b60007fffffffffffffffffffffffffffffffffffffffffffffffffffffffffffffffff820361303257613032612f47565b5060010190565b60006060828403121561304b57600080fd5b6040516060810181811067ffffffffffffffff8211171561306e5761306e612f70565b60405261307a836127da565b8152613088602084016127da565b6020820152604083013560408201528091505092915050565b6000602082840312156130b357600080fd5b815167ffffffffffffffff808211156130cb57600080fd5b818401915084601f8301126130df57600080fd5b8151818111156130f1576130f1612f70565b604051601f8201601f19908116603f0116810190838211818310171561311957613119612f70565b8160405282815287602084870101111561313257600080fd5b610ae2836020830160208801612844565b7f66726f6d3a20000000000000000000000000000000000000000000000000000081526000825161317b816006850160208701612844565b600560f91b6006939091019283015250600701919050565b7f746f3a20000000000000000000000000000000000000000000000000000000008152600082516131cb816004850160208701612844565b600560f91b6004939091019283015250600501919050565b6000602082840312156131f557600080fd5b81516118128161291b565b7f616d6f756e743a20000000000000000000000000000000000000000000000000815260008351613238816008850160208801612844565b7f20000000000000000000000000000000000000000000000000000000000000006008918401918201528351613275816009840160208801612844565b01600901949350505050565b7f5472616e7366657246726f6d0a000000000000000000000000000000000000008152600084516132b981600d850160208901612844565b8451908301906132d081600d840160208901612844565b84519101906132e681600d840160208801612844565b01600d0195945050505050565b600060e0828403121561330557600080fd5b60405160e0810181811067ffffffffffffffff8211171561332857613328612f70565b604052613334836127da565b8152613342602084016127da565b6020820152604083013560408201526060830135606082015260808301356133698161291b565b608082015260a0838101359082015260c0928301359281019290925250919050565b7f6f776e65723a20000000000000000000000000000000000000000000000000008152600082516133c3816007850160208701612844565b600560f91b6007939091019283015250600801919050565b7f7370656e6465723a200000000000000000000000000000000000000000000000815260008251613413816009850160208701612844565b600560f91b6009939091019283015250600a01919050565b7f76616c75653a2000000000000000000000000000000000000000000000000000815260008351613463816007850160208801612844565b7f200000000000000000000000000000000000000000000000000000000000000060079184019182015283516134a0816008840160208801612844565b600560f91b60089290910191820152600901949350505050565b7f646561646c696e653a20000000000000000000000000000000000000000000008152600082516134f281600a850160208701612844565b600560f91b600a939091019283015250600b01919050565b7f763a200000000000000000000000000000000000000000000000000000000000815260008251613542816003850160208701612844565b600560f91b6003939091019283015250600401919050565b7f723a200000000000000000000000000000000000000000000000000000000000815260008251613542816003850160208701612844565b7f733a2000000000000000000000000000000000000000000000000000000000008152600082516135ca816003850160208701612844565b9190910160030192915050565b7f5065726d69740a000000000000000000000000000000000000000000000000008152600060078951602061361182848701838f01612844565b8a519185019161362681858501848f01612844565b8a5192019161363a81858501848e01612844565b895192019161364e81858501848d01612844565b885192019161366281858501848c01612844565b875192019161367681858501848b01612844565b865192019161368a81858501848a01612844565b919091019091019a9950505050505050505050565b6000602082840312156136b157600080fd5b5051919050565b600082516136ca818460208701612844565b600560f91b920191825250600101919050565b6000602082840312156136ef57600080fd5b813563ffffffff8116811461181257600080fd5b7f7461673a2000000000000000000000000000000000000000000000000000000081526000825161373b816005850160208701612844565b600560f91b6005939091019283015250600601919050565b7f6e6f6e63653a20000000000000000000000000000000000000000000000000008152600082516133c3816007850160208701612844565b7f7061796c6f61643a200000000000000000000000000000000000000000000000815260008251613413816009850160208701612844565b7f6d657461646174613a20000000000000000000000000000000000000000000008152600082516137fb81600a850160208701612844565b91909101600a0192915050565b60008751602061381b8285838d01612844565b81840191507f2d2d2d0a0000000000000000000000000000000000000000000000000000000082526004895161385681838601858e01612844565b895193019261386a81838601858d01612844565b885193019261387e81838601858c01612844565b875193019261389281838601858b01612844565b86519301926138a681838601858a01612844565b929092019091019998505050505050505050565b6000602082840312156138cc57600080fd5b8151801515811461181257600080fd5b600082516138ee818460208701612844565b9190910192915050565b634e487b7160e01b600052602160045260246000fd5b82815260406020820152600061180f6040830184612868565b634e487b7160e01b600052605160045260246000fdfe416464726573733a206c6f772d6c6576656c2064656c65676174652063616c6c206661696c6564a2646970667358221220c6c6b50510250ebacc3ab0860a0b870c09479f6413349908d7ff365c8de9372f64736f6c63430008110033",
  "deployedBytecode": "0x608060405234801561001057600080fd5b50600436106101775760003560e01c806385715b67116100d8578063a85aa6641161008c578063d85116bb11610066578063d85116bb1461034b578063f5075a761461035e578063fc0c546a1461037157600080fd5b8063a85aa664146102f8578063ac9650d814610318578063cafac7501461033857600080fd5b806394739e87116100bd57806394739e87146102b35780639c38853e146102da578063a1a02940146102ed57600080fd5b806385715b671461027d57806389a7f48e1461029057600080fd5b80635d6ffc931161012f578063651c51e111610114578063651c51e11461023457806379ea45ac146102495780637d561b101461026a57600080fd5b80635d6ffc931461020157806360734bd81461021457600080fd5b80630a66a442116101605780630a66a442146101c85780630b5e6d28146101db5780632acbad69146101ee57600080fd5b80630182aebc1461017c57806301ffc9a7146101a5575b600080fd5b61018f61018a3660046127f6565b6103b0565b60405161019c9190612894565b60405180910390f35b6101b86101b33660046128f1565b61040f565b604051901515815260200161019c565b61018f6101d636600461296c565b610453565b61018f6101e9366004612a18565b6104ed565b61018f6101fc366004612acf565b61057d565b61018f61020f366004612b13565b6105e6565b61021f63f7d48c1c81565b60405163ffffffff909116815260200161019c565b610247610242366004612bad565b61066e565b005b61025c610257366004612c16565b6106b3565b60405190815260200161019c565b61018f610278366004612c53565b6106be565b61024761028b366004612bad565b61072f565b6101b861029e366004612cc9565b60026020526000908152604090205460ff1681565b61025c7f3c4eccc58df3b1fa05ba717589f6675a1af0cfee2fe59126957513d39f45d1ce81565b6102476102e8366004612ce2565b6107d8565b61021f6377ed603f81565b61030b610306366004612c16565b610894565b60405161019c9190612d45565b61032b610326366004612d58565b61089f565b60405161019c9190612dcd565b61018f610346366004612e4d565b610994565b610247610359366004612ce2565b6109fb565b61018f61036c366004612ecf565b610a5b565b6103987f000000000000000000000000000000000000000000000000000000000000000081565b6040516001600160a01b03909116815260200161019c565b6103e86040518060a00160405280600063ffffffff168152602001600081526020016000815260200160608152602001606081525090565b610405868686868660405180602001604052806000815250611819565b9695505050505050565b60006001600160e01b031982167f17343c6a00000000000000000000000000000000000000000000000000000000148061044d575061044d826118d2565b92915050565b61048b6040518060a00160405280600063ffffffff168152602001600081526020016000815260200160608152602001606081525090565b6104de8b61049b42610e10612f5d565b8c8c8c8c8c8c8c8c8c8080601f01602080910402602001604051908101604052809392919081815260200183838082843760009201919091525061191092505050565b9b9a5050505050505050505050565b6105256040518060a00160405280600063ffffffff168152602001600081526020016000815260200160608152602001606081525090565b61056d8c8c8c8c8c8c8c8c8c8c8c8080601f01602080910402602001604051908101604052809392919081815260200183838082843760009201919091525061191092505050565b9c9b505050505050505050505050565b6105b56040518060a00160405280600063ffffffff168152602001600081526020016000815260200160608152602001606081525090565b6105dd856105c542610e10612f5d565b86868660405180602001604052806000815250611819565b95945050505050565b61061e6040518060a00160405280600063ffffffff168152602001600081526020016000815260200160608152602001606081525090565b610662888888888888888080601f01602080910402602001604051908101604052809392919081815260200183838082843760009201919091525061181992505050565b98975050505050505050565b6106ae8383838080601f016020809104026020016040519081016040528093929190818152602001838380828437600092019190915250611a6692505050565b505050565b600061044d82611b47565b6106f66040518060a00160405280600063ffffffff168152602001600081526020016000815260200160608152602001606081525090565b6107228961070642610e10612f5d565b8a8a8a8a8a8a8a60405180602001604052806000815250611910565b9998505050505050505050565b6002600054036107865760405162461bcd60e51b815260206004820152601f60248201527f5265656e7472616e637947756172643a207265656e7472616e742063616c6c0060448201526064015b60405180910390fd5b60026000819055506107ce8383838080601f016020809104026020016040519081016040528093929190818152602001838380828437600092019190915250611b6092505050565b5050600160005550565b60026000540361082a5760405162461bcd60e51b815260206004820152601f60248201527f5265656e7472616e637947756172643a207265656e7472616e742063616c6c00604482015260640161077d565b600260005560408051602081018590528082018490527fff0000000000000000000000000000000000000000000000000000000000000060f884901b166060820152815180820360410181526061909101909152610889908590611b60565b505060016000555050565b606061044d82611c5a565b60608167ffffffffffffffff8111156108ba576108ba612f70565b6040519080825280602002602001820160405280156108ed57816020015b60608152602001906001900390816108d85790505b50905060005b8281101561098d5761095d3085858481811061091157610911612f86565b90506020028101906109239190612f9c565b8080601f01602080910402602001604051908101604052809392919081815260200183838082843760009201919091525061209492505050565b82828151811061096f5761096f612f86565b6020026020010181905250808061098590613001565b9150506108f3565b5092915050565b6109cc6040518060a00160405280600063ffffffff168152602001600081526020016000815260200160608152602001606081525090565b6109ed8a8a8a8a8a8a8a8a8a60405180602001604052806000815250611910565b9a9950505050505050505050565b60408051602081018590528082018490527fff0000000000000000000000000000000000000000000000000000000000000060f884901b166060820152815180820360410181526061909101909152610a55908590611a66565b50505050565b610a936040518060a00160405280600063ffffffff168152602001600081526020016000815260200160608152602001606081525090565b610ae287610aa342610e10612f5d565b88888888888080601f01602080910402602001604051908101604052809392919081815260200183838082843760009201919091525061181992505050565b979650505050505050565b60606000610afd83830184612f9c565b810190610b0a9190613039565b8051604051632b65311f60e11b81526001600160a01b03909116600482015290915073__$6c26b6356be7587ae5a263a1ef0d5ec208$__906356ca623e90602401600060405180830381865af4158015610b68573d6000803e3d6000fd5b505050506040513d6000823e601f3d908101601f19168201604052610b9091908101906130a1565b604051602001610ba09190613143565b60408051808303601f19018152908290526020830151632b65311f60e11b83526001600160a01b031660048301529073__$6c26b6356be7587ae5a263a1ef0d5ec208$__906356ca623e90602401600060405180830381865af4158015610c0b573d6000803e3d6000fd5b505050506040513d6000823e601f3d908101601f19168201604052610c3391908101906130a1565b604051602001610c439190613193565b6040516020818303038152906040527f00000000000000000000000000000000000000000000000000000000000000006001600160a01b03166395d89b416040518163ffffffff1660e01b8152600401600060405180830381865afa158015610cb0573d6000803e3d6000fd5b505050506040513d6000823e601f3d908101601f19168201604052610cd891908101906130a1565b836040015173__$6c26b6356be7587ae5a263a1ef0d5ec208$__63338dc7fd90917f00000000000000000000000000000000000000000000000000000000000000006001600160a01b031663313ce5676040518163ffffffff1660e01b8152600401602060405180830381865afa158015610d57573d6000803e3d6000fd5b505050506040513d601f19601f82011682018060405250810190610d7b91906131e3565b6040516001600160e01b031960e085901b168152600481019290925260ff166024820152604401600060405180830381865af4158015610dbf573d6000803e3d6000fd5b505050506040513d6000823e601f3d908101601f19168201604052610de791908101906130a1565b604051602001610df8929190613200565b60408051601f1981840301815290829052610e17939291602001613281565b604051602081830303815290604052915050919050565b600080610e3e6060840184612f9c565b810190610e4b9190613039565b519392505050565b6000610e626060830183612f9c565b810190610e6f9190613039565b805160208201516040830151929350610eb4926001600160a01b037f000000000000000000000000000000000000000000000000000000000000000016929190611539565b5050565b60606000610ec883830184612f9c565b810190610ed591906132f3565b8051604051632b65311f60e11b81526001600160a01b03909116600482015290915073__$6c26b6356be7587ae5a263a1ef0d5ec208$__906356ca623e90602401600060405180830381865af4158015610f33573d6000803e3d6000fd5b505050506040513d6000823e601f3d908101601f19168201604052610f5b91908101906130a1565b604051602001610f6b919061338b565b60408051808303601f19018152908290526020830151632b65311f60e11b83526001600160a01b031660048301529073__$6c26b6356be7587ae5a263a1ef0d5ec208$__906356ca623e90602401600060405180830381865af4158015610fd6573d6000803e3d6000fd5b505050506040513d6000823e601f3d908101601f19168201604052610ffe91908101906130a1565b60405160200161100e91906133db565b6040516020818303038152906040527f00000000000000000000000000000000000000000000000000000000000000006001600160a01b03166395d89b416040518163ffffffff1660e01b8152600401600060405180830381865afa15801561107b573d6000803e3d6000fd5b505050506040513d6000823e601f3d908101601f191682016040526110a391908101906130a1565b836040015173__$6c26b6356be7587ae5a263a1ef0d5ec208$__63338dc7fd90917f00000000000000000000000000000000000000000000000000000000000000006001600160a01b031663313ce5676040518163ffffffff1660e01b8152600401602060405180830381865afa158015611122573d6000803e3d6000fd5b505050506040513d601f19601f8201168201806040525081019061114691906131e3565b6040516001600160e01b031960e085901b168152600481019290925260ff166024820152604401600060405180830381865af415801561118a573d6000803e3d6000fd5b505050506040513d6000823e601f3d908101601f191682016040526111b291908101906130a1565b6040516020016111c392919061342b565b60408051808303601f190181529082905260608501517f4b2dd51900000000000000000000000000000000000000000000000000000000835264ffffffffff1660048301529073__$6c26b6356be7587ae5a263a1ef0d5ec208$__90634b2dd51990602401600060405180830381865af4158015611245573d6000803e3d6000fd5b505050506040513d6000823e601f3d908101601f1916820160405261126d91908101906130a1565b60405160200161127d91906134ba565b60408051808303601f1901815290829052608086015163348051d760e11b835260ff1660048301529073__$6c26b6356be7587ae5a263a1ef0d5ec208$__90636900a3ae90602401600060405180830381865af41580156112e2573d6000803e3d6000fd5b505050506040513d6000823e601f3d908101601f1916820160405261130a91908101906130a1565b60405160200161131a919061350a565b60408051808303601f190181529082905260a08701517fb11a19e800000000000000000000000000000000000000000000000000000000835260048301529073__$6c26b6356be7587ae5a263a1ef0d5ec208$__9063b11a19e890602401600060405180830381865af4158015611395573d6000803e3d6000fd5b505050506040513d6000823e601f3d908101601f191682016040526113bd91908101906130a1565b6040516020016113cd919061355a565b60408051808303601f190181529082905260c08801517fb11a19e800000000000000000000000000000000000000000000000000000000835260048301529073__$6c26b6356be7587ae5a263a1ef0d5ec208$__9063b11a19e890602401600060405180830381865af4158015611448573d6000803e3d6000fd5b505050506040513d6000823e601f3d908101601f1916820160405261147091908101906130a1565b6040516020016114809190613592565b60408051601f1981840301815290829052610e17979695949392916020016135d7565b6000806114b36060840184612f9c565b810190610e4b91906132f3565b60006114cf6060830183612f9c565b8101906114dc91906132f3565b8051602082015160408301516060840151608085015160a086015160c0870151969750610eb4966001600160a01b037f000000000000000000000000000000000000000000000000000000000000000016969594939291906115c1565b604080516001600160a01b0385811660248301528416604482015260648082018490528251808303909101815260849091019091526020810180517bffffffffffffffffffffffffffffffffffffffffffffffffffffffff167f23b872dd00000000000000000000000000000000000000000000000000000000179052610a559085906120bc565b6040517f7ecebe000000000000000000000000000000000000000000000000000000000081526001600160a01b038881166004830152600091908a1690637ecebe0090602401602060405180830381865afa158015611624573d6000803e3d6000fd5b505050506040513d601f19601f82011682018060405250810190611648919061369f565b6040517fd505accf0000000000000000000000000000000000000000000000000000000081526001600160a01b038a811660048301528981166024830152604482018990526064820188905260ff8716608483015260a4820186905260c48201859052919250908a169063d505accf9060e401600060405180830381600087803b1580156116d557600080fd5b505af11580156116e9573d6000803e3d6000fd5b50506040517f7ecebe000000000000000000000000000000000000000000000000000000000081526001600160a01b038b81166004830152600093508c169150637ecebe0090602401602060405180830381865afa15801561174f573d6000803e3d6000fd5b505050506040513d601f19601f82011682018060405250810190611773919061369f565b9050611780826001612f5d565b81146117f45760405162461bcd60e51b815260206004820152602160248201527f5361666545524332303a207065726d697420646964206e6f742073756363656560448201527f6400000000000000000000000000000000000000000000000000000000000000606482015260840161077d565b50505050505050505050565b606061180f84846000856121a1565b90505b9392505050565b6118516040518060a00160405280600063ffffffff168152602001600081526020016000815260200160608152602001606081525090565b506040805160a08101825263f7d48c1c8152602080820198909852808201969096528051606080820183526001600160a01b03968716808352958716828a0190815291830194855282519889019590955251909416868501529051858301528251808603830181526080958601909352908301919091529181019190915290565b60006001600160e01b031982167f1f5eba8200000000000000000000000000000000000000000000000000000000148061044d575061044d826122de565b6119486040518060a00160405280600063ffffffff168152602001600081526020016000815260200160608152602001606081525090565b6040518060a001604052807f77ed603f8652441f01366c10fab285b166be94dd5c89e1dcd972a451dda1827d60e01c63ffffffff1681526020018c81526020018b81526020016040518060e001604052808c6001600160a01b031681526020018b6001600160a01b031681526020018a81526020018981526020018860ff16815260200187815260200186815250604051602001611a3f9190600060e0820190506001600160a01b0380845116835280602085015116602084015250604083015160408301526060830151606083015260ff608084015116608083015260a083015160a083015260c083015160c083015292915050565b60408051601f19818403018152919052815260200192909252509998505050505050505050565b611a81611a7283612345565b611a7b84611b47565b8361238a565b611af35760405162461bcd60e51b815260206004820152602260248201527f476174657761793a20696e76616c696420766f7563686572207369676e61747560448201527f7265000000000000000000000000000000000000000000000000000000000000606482015260840161077d565b8160400135421115610eb45760405162461bcd60e51b815260206004820152601960248201527f476174657761793a206578706972656420646561646c696e6500000000000000604482015260640161077d565b6000611b5282611c5a565b805190602001209050919050565b611b6a8282611a66565b6000611b7583611b47565b60008181526002602052604090205490915060ff1615611bd75760405162461bcd60e51b815260206004820152601f60248201527f476174657761793a20766f756368657220616c72656164792073657276656400604482015260640161077d565b600081815260026020526040902080547fffffffffffffffffffffffffffffffffffffffffffffffffffffffffffffff00166001179055611c17836124f9565b807fd193a54dd0b0b5884cffc665f0803faa8d7f44280881b0a277878158bebd4c5d336040516001600160a01b03909116815260200160405180910390a2505050565b6060611c6582612545565b604051602001611c7591906136b8565b60408051601f19818403018152919052611c9260208401846136dd565b60405163348051d760e11b815263ffffffff909116600482015273__$6c26b6356be7587ae5a263a1ef0d5ec208$__90636900a3ae90602401600060405180830381865af4158015611ce8573d6000803e3d6000fd5b505050506040513d6000823e601f3d908101601f19168201604052611d1091908101906130a1565b604051602001611d209190613703565b60408051808303601f190181529082905263348051d760e11b8252602085013560048301529073__$6c26b6356be7587ae5a263a1ef0d5ec208$__90636900a3ae90602401600060405180830381865af4158015611d82573d6000803e3d6000fd5b505050506040513d6000823e601f3d908101601f19168201604052611daa91908101906130a1565b604051602001611dba9190613753565b60408051808303601f190181528282527f4b2dd5190000000000000000000000000000000000000000000000000000000083529086013564ffffffffff1660048301529073__$6c26b6356be7587ae5a263a1ef0d5ec208$__90634b2dd51990602401600060405180830381865af4158015611e3a573d6000803e3d6000fd5b505050506040513d6000823e601f3d908101601f19168201604052611e6291908101906130a1565b604051602001611e7291906134ba565b60408051601f19818403018152919052611e8f6060870187612f9c565b8080601f016020809104026020016040519081016040528093929190818152602001838380828437600092019190915250506040517f71aad10d00000000000000000000000000000000000000000000000000000000815273__$6c26b6356be7587ae5a263a1ef0d5ec208$__936371aad10d9350611f12925090600401612d45565b600060405180830381865af4158015611f2f573d6000803e3d6000fd5b505050506040513d6000823e601f3d908101601f19168201604052611f5791908101906130a1565b604051602001611f67919061378b565b60408051601f19818403018152919052611f846080880188612f9c565b8080601f016020809104026020016040519081016040528093929190818152602001838380828437600092019190915250506040517f71aad10d00000000000000000000000000000000000000000000000000000000815273__$6c26b6356be7587ae5a263a1ef0d5ec208$__936371aad10d9350612007925090600401612d45565b600060405180830381865af4158015612024573d6000803e3d6000fd5b505050506040513d6000823e601f3d908101601f1916820160405261204c91908101906130a1565b60405160200161205c91906137c3565b60408051601f198184030181529082905261207e969594939291602001613808565b6040516020818303038152906040529050919050565b6060611812838360405180606001604052806027815260200161393e6027913961257f565b50565b6000612111826040518060400160405280602081526020017f5361666545524332303a206c6f772d6c6576656c2063616c6c206661696c6564815250856001600160a01b03166118009092919063ffffffff16565b8051909150156106ae578080602001905181019061212f91906138ba565b6106ae5760405162461bcd60e51b815260206004820152602a60248201527f5361666545524332303a204552433230206f7065726174696f6e20646964206e60448201527f6f74207375636365656400000000000000000000000000000000000000000000606482015260840161077d565b6060824710156122195760405162461bcd60e51b815260206004820152602660248201527f416464726573733a20696e73756666696369656e742062616c616e636520666f60448201527f722063616c6c0000000000000000000000000000000000000000000000000000606482015260840161077d565b6001600160a01b0385163b6122705760405162461bcd60e51b815260206004820152601d60248201527f416464726573733a2063616c6c20746f206e6f6e2d636f6e7472616374000000604482015260640161077d565b600080866001600160a01b0316858760405161228c91906138dc565b60006040518083038185875af1925050503d80600081146122c9576040519150601f19603f3d011682016040523d82523d6000602084013e6122ce565b606091505b5091509150610ae2828286612665565b60006001600160e01b031982167f686010c200000000000000000000000000000000000000000000000000000000148061044d57507f01ffc9a7000000000000000000000000000000000000000000000000000000006001600160e01b031983161461044d565b600061044d8260018361235b60208401846136dd565b63ffffffff908116825260208201929092526040016000205468010000000000000000900480156127d0021716565b6000806000612399858561269e565b909250905060008160048111156123b2576123b26138f8565b1480156123d05750856001600160a01b0316826001600160a01b0316145b156123e057600192505050611812565b600080876001600160a01b0316631626ba7e60e01b888860405160240161240892919061390e565b60408051601f198184030181529181526020820180517bffffffffffffffffffffffffffffffffffffffffffffffffffffffff166001600160e01b031990941693909317909252905161245b91906138dc565b600060405180830381855afa9150503d8060008114612496576040519150601f19603f3d011682016040523d82523d6000602084013e61249b565b606091505b50915091508180156124ae575080516020145b8015610662575080517f1626ba7e00000000000000000000000000000000000000000000000000000000906124ec908301602090810190840161369f565b1498975050505050505050565b6120b9816001600061250e60208401846136dd565b63ffffffff9081168252602082019290925260400160002054700100000000000000000000000000000000900480156127d0021716565b606061044d826001600061255c60208401846136dd565b63ffffffff90811682526020820192909252604001600020546127d08115021716565b60606001600160a01b0384163b6125fe5760405162461bcd60e51b815260206004820152602660248201527f416464726573733a2064656c65676174652063616c6c20746f206e6f6e2d636f60448201527f6e74726163740000000000000000000000000000000000000000000000000000606482015260840161077d565b600080856001600160a01b03168560405161261991906138dc565b600060405180830381855af49150503d8060008114612654576040519150601f19603f3d011682016040523d82523d6000602084013e612659565b606091505b50915091506104058282865b60608315612674575081611812565b8251156126845782518084602001fd5b8160405162461bcd60e51b815260040161077d9190612d45565b60008082516041036126d45760208301516040840151606085015160001a6126c8878285856126e3565b945094505050506126dc565b506000905060025b9250929050565b6000807f7fffffffffffffffffffffffffffffff5d576e7357a4501ddfe92f46681b20a083111561271a57506000905060036127c7565b8460ff16601b1415801561273257508460ff16601c14155b1561274357506000905060046127c7565b6040805160008082526020820180845289905260ff881692820192909252606081018690526080810185905260019060a0016020604051602081039080840390855afa158015612797573d6000803e3d6000fd5b5050604051601f1901519150506001600160a01b0381166127c0576000600192509250506127c7565b9150600090505b94509492505050565b6127d8613927565b565b80356001600160a01b03811681146127f157600080fd5b919050565b600080600080600060a0868803121561280e57600080fd5b8535945060208601359350612825604087016127da565b9250612833606087016127da565b949793965091946080013592915050565b60005b8381101561285f578181015183820152602001612847565b50506000910152565b60008151808452612880816020860160208601612844565b601f01601f19169290920160200192915050565b6020815263ffffffff825116602082015260208201516040820152604082015160608201526000606083015160a060808401526128d460c0840182612868565b90506080840151601f198483030160a08501526105dd8282612868565b60006020828403121561290357600080fd5b81356001600160e01b03198116811461181257600080fd5b60ff811681146120b957600080fd5b60008083601f84011261293c57600080fd5b50813567ffffffffffffffff81111561295457600080fd5b6020830191508360208285010111156126dc57600080fd5b6000806000806000806000806000806101208b8d03121561298c57600080fd5b8a35995061299c60208c016127da565b98506129aa60408c016127da565b975060608b0135965060808b0135955060a08b01356129c88161291b565b945060c08b0135935060e08b013592506101008b013567ffffffffffffffff8111156129f357600080fd5b6129ff8d828e0161292a565b915080935050809150509295989b9194979a5092959850565b60008060008060008060008060008060006101408c8e031215612a3a57600080fd5b8b359a5060208c01359950612a5160408d016127da565b9850612a5f60608d016127da565b975060808c0135965060a08c0135955060c08c0135612a7d8161291b565b945060e08c013593506101008c013592506101208c013567ffffffffffffffff811115612aa957600080fd5b612ab58e828f0161292a565b915080935050809150509295989b509295989b9093969950565b60008060008060808587031215612ae557600080fd5b84359350612af5602086016127da565b9250612b03604086016127da565b9396929550929360600135925050565b600080600080600080600060c0888a031215612b2e57600080fd5b8735965060208801359550612b45604089016127da565b9450612b53606089016127da565b93506080880135925060a088013567ffffffffffffffff811115612b7657600080fd5b612b828a828b0161292a565b989b979a50959850939692959293505050565b600060a08284031215612ba757600080fd5b50919050565b600080600060408486031215612bc257600080fd5b833567ffffffffffffffff80821115612bda57600080fd5b612be687838801612b95565b94506020860135915080821115612bfc57600080fd5b50612c098682870161292a565b9497909650939450505050565b600060208284031215612c2857600080fd5b813567ffffffffffffffff811115612c3f57600080fd5b612c4b84828501612b95565b949350505050565b600080600080600080600080610100898b031215612c7057600080fd5b88359750612c8060208a016127da565b9650612c8e60408a016127da565b9550606089013594506080890135935060a0890135612cac8161291b565b979a969950949793969295929450505060c08201359160e0013590565b600060208284031215612cdb57600080fd5b5035919050565b60008060008060808587031215612cf857600080fd5b843567ffffffffffffffff811115612d0f57600080fd5b612d1b87828801612b95565b94505060208501359250604085013591506060850135612d3a8161291b565b939692955090935050565b6020815260006118126020830184612868565b60008060208385031215612d6b57600080fd5b823567ffffffffffffffff80821115612d8357600080fd5b818501915085601f830112612d9757600080fd5b813581811115612da657600080fd5b8660208260051b8501011115612dbb57600080fd5b60209290920196919550909350505050565b6000602080830181845280855180835260408601915060408160051b870101925083870160005b82811015612e40577fffffffffffffffffffffffffffffffffffffffffffffffffffffffffffffffc0888603018452612e2e858351612868565b94509285019290850190600101612df4565b5092979650505050505050565b60008060008060008060008060006101208a8c031215612e6c57600080fd5b8935985060208a01359750612e8360408b016127da565b9650612e9160608b016127da565b955060808a0135945060a08a0135935060c08a0135612eaf8161291b565b8093505060e08a013591506101008a013590509295985092959850929598565b60008060008060008060a08789031215612ee857600080fd5b86359550612ef8602088016127da565b9450612f06604088016127da565b935060608701359250608087013567ffffffffffffffff811115612f2957600080fd5b612f3589828a0161292a565b979a9699509497509295939492505050565b634e487b7160e01b600052601160045260246000fd5b8082018082111561044d5761044d612f47565b634e487b7160e01b600052604160045260246000fd5b634e487b7160e01b600052603260045260246000fd5b60008083357fffffffffffffffffffffffffffffffffffffffffffffffffffffffffffffffe1843603018112612fd157600080fd5b83018035915067ffffffffffffffff821115612fec57600080fd5b6020019150368190038213156126dc57600080fd5b60007fffffffffffffffffffffffffffffffffffffffffffffffffffffffffffffffff820361303257613032612f47565b5060010190565b60006060828403121561304b57600080fd5b6040516060810181811067ffffffffffffffff8211171561306e5761306e612f70565b60405261307a836127da565b8152613088602084016127da565b6020820152604083013560408201528091505092915050565b6000602082840312156130b357600080fd5b815167ffffffffffffffff808211156130cb57600080fd5b818401915084601f8301126130df57600080fd5b8151818111156130f1576130f1612f70565b604051601f8201601f19908116603f0116810190838211818310171561311957613119612f70565b8160405282815287602084870101111561313257600080fd5b610ae2836020830160208801612844565b7f66726f6d3a20000000000000000000000000000000000000000000000000000081526000825161317b816006850160208701612844565b600560f91b6006939091019283015250600701919050565b7f746f3a20000000000000000000000000000000000000000000000000000000008152600082516131cb816004850160208701612844565b600560f91b6004939091019283015250600501919050565b6000602082840312156131f557600080fd5b81516118128161291b565b7f616d6f756e743a20000000000000000000000000000000000000000000000000815260008351613238816008850160208801612844565b7f20000000000000000000000000000000000000000000000000000000000000006008918401918201528351613275816009840160208801612844565b01600901949350505050565b7f5472616e7366657246726f6d0a000000000000000000000000000000000000008152600084516132b981600d850160208901612844565b8451908301906132d081600d840160208901612844565b84519101906132e681600d840160208801612844565b01600d0195945050505050565b600060e0828403121561330557600080fd5b60405160e0810181811067ffffffffffffffff8211171561332857613328612f70565b604052613334836127da565b8152613342602084016127da565b6020820152604083013560408201526060830135606082015260808301356133698161291b565b608082015260a0838101359082015260c0928301359281019290925250919050565b7f6f776e65723a20000000000000000000000000000000000000000000000000008152600082516133c3816007850160208701612844565b600560f91b6007939091019283015250600801919050565b7f7370656e6465723a200000000000000000000000000000000000000000000000815260008251613413816009850160208701612844565b600560f91b6009939091019283015250600a01919050565b7f76616c75653a2000000000000000000000000000000000000000000000000000815260008351613463816007850160208801612844565b7f200000000000000000000000000000000000000000000000000000000000000060079184019182015283516134a0816008840160208801612844565b600560f91b60089290910191820152600901949350505050565b7f646561646c696e653a20000000000000000000000000000000000000000000008152600082516134f281600a850160208701612844565b600560f91b600a939091019283015250600b01919050565b7f763a200000000000000000000000000000000000000000000000000000000000815260008251613542816003850160208701612844565b600560f91b6003939091019283015250600401919050565b7f723a200000000000000000000000000000000000000000000000000000000000815260008251613542816003850160208701612844565b7f733a2000000000000000000000000000000000000000000000000000000000008152600082516135ca816003850160208701612844565b9190910160030192915050565b7f5065726d69740a000000000000000000000000000000000000000000000000008152600060078951602061361182848701838f01612844565b8a519185019161362681858501848f01612844565b8a5192019161363a81858501848e01612844565b895192019161364e81858501848d01612844565b885192019161366281858501848c01612844565b875192019161367681858501848b01612844565b865192019161368a81858501848a01612844565b919091019091019a9950505050505050505050565b6000602082840312156136b157600080fd5b5051919050565b600082516136ca818460208701612844565b600560f91b920191825250600101919050565b6000602082840312156136ef57600080fd5b813563ffffffff8116811461181257600080fd5b7f7461673a2000000000000000000000000000000000000000000000000000000081526000825161373b816005850160208701612844565b600560f91b6005939091019283015250600601919050565b7f6e6f6e63653a20000000000000000000000000000000000000000000000000008152600082516133c3816007850160208701612844565b7f7061796c6f61643a200000000000000000000000000000000000000000000000815260008251613413816009850160208701612844565b7f6d657461646174613a20000000000000000000000000000000000000000000008152600082516137fb81600a850160208701612844565b91909101600a0192915050565b60008751602061381b8285838d01612844565b81840191507f2d2d2d0a0000000000000000000000000000000000000000000000000000000082526004895161385681838601858e01612844565b895193019261386a81838601858d01612844565b885193019261387e81838601858c01612844565b875193019261389281838601858b01612844565b86519301926138a681838601858a01612844565b929092019091019998505050505050505050565b6000602082840312156138cc57600080fd5b8151801515811461181257600080fd5b600082516138ee818460208701612844565b9190910192915050565b634e487b7160e01b600052602160045260246000fd5b82815260406020820152600061180f6040830184612868565b634e487b7160e01b600052605160045260246000fdfe416464726573733a206c6f772d6c6576656c2064656c65676174652063616c6c206661696c6564a2646970667358221220c6c6b50510250ebacc3ab0860a0b870c09479f6413349908d7ff365c8de9372f64736f6c63430008110033",
  "libraries": {
    "ToString": "0x1E232D4c772C2A9849aDf2D979201DAbd2c19763"
  },
  "devdoc": {
    "kind": "dev",
    "methods": {
      "buildPermitVoucher(uint256,address,address,uint256,uint256,uint8,bytes32,bytes32)": {
        "params": {
          "nonce": "Nonce to use",
          "owner": "Permit owner address to use",
          "permitDeadline": "Permit deadline to use",
          "r": "Permit's signature \"r\" component to use",
          "s": "Permit's signature \"s\" component to use",
          "spender": "Permit spender address to use",
          "v": "Permit's signature \"v\" component to use",
          "value": "Permit amount to use"
        },
        "returns": {
          "voucher": " The generated voucher"
        }
      },
      "buildPermitVoucher(uint256,address,address,uint256,uint256,uint8,bytes32,bytes32,bytes)": {
        "params": {
          "metadata": "Voucher metadata to use",
          "nonce": "Nonce to use",
          "owner": "Permit owner address to use",
          "permitDeadline": "Permit deadline to use",
          "r": "Permit's signature \"r\" component to use",
          "s": "Permit's signature \"s\" component to use",
          "spender": "Permit spender address to use",
          "v": "Permit's signature \"v\" component to use",
          "value": "Permit amount to use"
        },
        "returns": {
          "voucher": " The generated voucher"
        }
      },
      "buildPermitVoucher(uint256,uint256,address,address,uint256,uint256,uint8,bytes32,bytes32)": {
        "params": {
          "deadline": "Voucher deadline to use",
          "nonce": "Nonce to use",
          "owner": "Permit owner address to use",
          "permitDeadline": "Permit deadline to use",
          "r": "Permit's signature \"r\" component to use",
          "s": "Permit's signature \"s\" component to use",
          "spender": "Permit spender address to use",
          "v": "Permit's signature \"v\" component to use",
          "value": "Permit amount to use"
        },
        "returns": {
          "voucher": " The generated voucher"
        }
      },
      "buildPermitVoucher(uint256,uint256,address,address,uint256,uint256,uint8,bytes32,bytes32,bytes)": {
        "params": {
          "deadline": "Voucher deadline to use",
          "metadata": "Voucher metadata to use",
          "nonce": "Nonce to use",
          "owner": "Permit owner address to use",
          "permitDeadline": "Permit deadline to use",
          "r": "Permit's signature \"r\" component to use",
          "s": "Permit's signature \"s\" component to use",
          "spender": "Permit spender address to use",
          "v": "Permit's signature \"v\" component to use",
          "value": "Permit amount to use"
        },
        "returns": {
          "voucher": " The generated voucher"
        }
      },
      "buildTransferFromVoucher(uint256,address,address,uint256)": {
        "params": {
          "amount": "Transfer amount to use",
          "from": "Transfer origin to use",
          "nonce": "Nonce to use",
          "to": "Transfer destination to use"
        },
        "returns": {
          "voucher": " The generated voucher"
        }
      },
      "buildTransferFromVoucher(uint256,address,address,uint256,bytes)": {
        "params": {
          "amount": "Transfer amount to use",
          "from": "Transfer origin to use",
          "metadata": "Voucher metadata to use",
          "nonce": "Nonce to use",
          "to": "Transfer destination to use"
        },
        "returns": {
          "voucher": " The generated voucher"
        }
      },
      "buildTransferFromVoucher(uint256,uint256,address,address,uint256)": {
        "params": {
          "amount": "Transfer amount to use",
          "deadline": "Voucher deadline to use",
          "from": "Transfer origin to use",
          "nonce": "Nonce to use",
          "to": "Transfer destination to use"
        },
        "returns": {
          "voucher": " The generated voucher"
        }
      },
      "buildTransferFromVoucher(uint256,uint256,address,address,uint256,bytes)": {
        "params": {
          "amount": "Transfer amount to use",
          "deadline": "Voucher deadline to use",
          "from": "Transfer origin to use",
          "metadata": "Voucher metadata to use",
          "nonce": "Nonce to use",
          "to": "Transfer destination to use"
        },
        "returns": {
          "voucher": " The generated voucher"
        }
      },
      "hashVoucher((uint32,uint256,uint256,bytes,bytes))": {
        "params": {
          "voucher": "The voucher to retrieve the hash for"
        },
        "returns": {
          "voucherHash": " The voucher hash associated to the given voucher"
        }
      },
      "multicall(bytes[])": {
        "details": "Receives and executes a batch of function calls on this contract."
      },
      "serveVoucher((uint32,uint256,uint256,bytes,bytes),bytes)": {
        "custom:emit": "VoucherServed",
        "params": {
          "signature": "The associated voucher signature",
          "voucher": "The voucher to serve"
        }
      },
      "serveVoucher((uint32,uint256,uint256,bytes,bytes),bytes32,bytes32,uint8)": {
        "custom:emit": "VoucherServed",
        "params": {
          "r": "The \"r\" component of the associated voucher signature",
          "s": "The \"s\" component of the associated voucher signature",
          "v": "The \"v\" component of the associated voucher signature",
          "voucher": "The voucher to serve"
        }
      },
      "stringifyVoucher((uint32,uint256,uint256,bytes,bytes))": {
        "params": {
          "voucher": "The voucher to stringify"
        },
        "returns": {
          "voucherString": " The string representation to be signed of the given voucher"
        }
      },
      "supportsInterface(bytes4)": {
        "params": {
          "interfaceId": "Interface ID to check against"
        },
        "returns": {
          "_0": "Whether the provided interface ID is supported"
        }
      },
      "validateVoucher((uint32,uint256,uint256,bytes,bytes),bytes)": {
        "params": {
          "signature": "The associated voucher signature",
          "voucher": "The voucher to validate"
        }
      },
      "validateVoucher((uint32,uint256,uint256,bytes,bytes),bytes32,bytes32,uint8)": {
        "params": {
          "r": "The \"r\" component of the associated voucher signature",
          "s": "The \"s\" component of the associated voucher signature",
          "v": "The \"v\" component of the associated voucher signature",
          "voucher": "The voucher to validate"
        }
      }
    },
    "version": 1
  },
  "userdoc": {
    "events": {
      "VoucherServed(bytes32,address)": {
        "notice": "Emitted upon a voucher being served"
      }
    },
    "kind": "user",
    "methods": {
      "PERMIT_VOUCHER_TAG()": {
        "notice": "Return the tag associated to the PermitVoucher voucher itself"
      },
      "TRANSFER_FROM_VOUCHER_TAG()": {
        "notice": "Return the tag associated to the TransferFromVoucher voucher itself"
      },
      "VOUCHER_TYPEHASH()": {
        "notice": "Return the typehash associated to the Gateway Voucher itself"
      },
      "buildPermitVoucher(uint256,address,address,uint256,uint256,uint8,bytes32,bytes32)": {
        "notice": "Build a PermitVoucher from the given parameters"
      },
      "buildPermitVoucher(uint256,address,address,uint256,uint256,uint8,bytes32,bytes32,bytes)": {
        "notice": "Build a PermitVoucher from the given parameters"
      },
      "buildPermitVoucher(uint256,uint256,address,address,uint256,uint256,uint8,bytes32,bytes32)": {
        "notice": "Build a PermitVoucher from the given parameters"
      },
      "buildPermitVoucher(uint256,uint256,address,address,uint256,uint256,uint8,bytes32,bytes32,bytes)": {
        "notice": "Build a PermitVoucher from the given parameters"
      },
      "buildTransferFromVoucher(uint256,address,address,uint256)": {
        "notice": "Build a TransferFromVoucher from the given parameters"
      },
      "buildTransferFromVoucher(uint256,address,address,uint256,bytes)": {
        "notice": "Build a TransferFromVoucher from the given parameters"
      },
      "buildTransferFromVoucher(uint256,uint256,address,address,uint256)": {
        "notice": "Build a TransferFromVoucher from the given parameters"
      },
      "buildTransferFromVoucher(uint256,uint256,address,address,uint256,bytes)": {
        "notice": "Build a TransferFromVoucher from the given parameters"
      },
      "hashVoucher((uint32,uint256,uint256,bytes,bytes))": {
        "notice": "Return the voucher hash associated to the given voucher"
      },
      "serveVoucher((uint32,uint256,uint256,bytes,bytes),bytes)": {
        "notice": "Serve the given voucher, by forwarding to the appropriate handler for the voucher's tag"
      },
      "serveVoucher((uint32,uint256,uint256,bytes,bytes),bytes32,bytes32,uint8)": {
        "notice": "Serve the given voucher, by forwarding to the appropriate handler for the voucher's tag"
      },
      "stringifyVoucher((uint32,uint256,uint256,bytes,bytes))": {
        "notice": "Return the string representation to be signed for a given Voucher"
      },
      "supportsInterface(bytes4)": {
        "notice": "Implementation of the IERC165 interface"
      },
      "token()": {
        "notice": "Retrieve the address of the underlying ERC20 token"
      },
      "validateVoucher((uint32,uint256,uint256,bytes,bytes),bytes)": {
        "notice": "Validate the given voucher against the given signature"
      },
      "validateVoucher((uint32,uint256,uint256,bytes,bytes),bytes32,bytes32,uint8)": {
        "notice": "Validate the given voucher against the given signature, by the given signer"
      },
      "voucherServed(bytes32)": {
        "notice": "Determine whether the given voucher hash has been already served"
      }
    },
    "version": 1
  },
  "storageLayout": {
    "storage": [
      {
        "astId": 4309,
        "contract": "contracts/BarGateway.sol:BarGateway",
        "label": "_status",
        "offset": 0,
        "slot": "0",
        "type": "t_uint256"
      },
      {
        "astId": 1344,
        "contract": "contracts/BarGateway.sol:BarGateway",
        "label": "voucherHandler",
        "offset": 0,
        "slot": "1",
        "type": "t_mapping(t_uint32,t_struct(HandlerEntry)1339_storage)"
      },
      {
        "astId": 1355,
        "contract": "contracts/BarGateway.sol:BarGateway",
        "label": "voucherServed",
        "offset": 0,
        "slot": "2",
        "type": "t_mapping(t_bytes32,t_bool)"
      }
    ],
    "types": {
      "t_bool": {
        "encoding": "inplace",
        "label": "bool",
        "numberOfBytes": "1"
      },
      "t_bytes32": {
        "encoding": "inplace",
        "label": "bytes32",
        "numberOfBytes": "32"
      },
      "t_function_internal_nonpayable(t_struct(Voucher)2033_calldata_ptr)returns()": {
        "encoding": "inplace",
        "label": "function (struct IGateway.Voucher)",
        "numberOfBytes": "8"
      },
      "t_function_internal_view(t_struct(Voucher)2033_calldata_ptr)returns(t_address)": {
        "encoding": "inplace",
        "label": "function (struct IGateway.Voucher) view returns (address)",
        "numberOfBytes": "8"
      },
      "t_function_internal_view(t_struct(Voucher)2033_calldata_ptr)returns(t_string_memory_ptr)": {
        "encoding": "inplace",
        "label": "function (struct IGateway.Voucher) view returns (string)",
        "numberOfBytes": "8"
      },
      "t_mapping(t_bytes32,t_bool)": {
        "encoding": "mapping",
        "key": "t_bytes32",
        "label": "mapping(bytes32 => bool)",
        "numberOfBytes": "32",
        "value": "t_bool"
      },
      "t_mapping(t_uint32,t_struct(HandlerEntry)1339_storage)": {
        "encoding": "mapping",
        "key": "t_uint32",
        "label": "mapping(uint32 => struct Gateway.HandlerEntry)",
        "numberOfBytes": "32",
        "value": "t_struct(HandlerEntry)1339_storage"
      },
      "t_struct(HandlerEntry)1339_storage": {
        "encoding": "inplace",
        "label": "struct Gateway.HandlerEntry",
        "members": [
          {
            "astId": 1322,
            "contract": "contracts/BarGateway.sol:BarGateway",
            "label": "message",
            "offset": 0,
            "slot": "0",
            "type": "t_function_internal_view(t_struct(Voucher)2033_calldata_ptr)returns(t_string_memory_ptr)"
          },
          {
            "astId": 1331,
            "contract": "contracts/BarGateway.sol:BarGateway",
            "label": "signer",
            "offset": 8,
            "slot": "0",
            "type": "t_function_internal_view(t_struct(Voucher)2033_calldata_ptr)returns(t_address)"
          },
          {
            "astId": 1338,
            "contract": "contracts/BarGateway.sol:BarGateway",
            "label": "execute",
            "offset": 16,
            "slot": "0",
            "type": "t_function_internal_nonpayable(t_struct(Voucher)2033_calldata_ptr)returns()"
          }
        ],
        "numberOfBytes": "32"
      },
      "t_uint256": {
        "encoding": "inplace",
        "label": "uint256",
        "numberOfBytes": "32"
      },
      "t_uint32": {
        "encoding": "inplace",
        "label": "uint32",
        "numberOfBytes": "4"
      }
    }
  }
}