{
  "address": "0x8552E2D4CC186954E861fD5c9aA8FfbbDE65e4e4",
  "abi": [
    {
      "inputs": [
        {
          "internalType": "address",
          "name": "theToken",
          "type": "address"
        },
        {
          "internalType": "address",
          "name": "theDestination",
          "type": "address"
        }
      ],
      "stateMutability": "nonpayable",
      "type": "constructor"
    },
    {
      "inputs": [],
      "name": "AlreadyServed",
      "type": "error"
    },
    {
      "inputs": [
        {
          "internalType": "uint256",
          "name": "validUntil",
          "type": "uint256"
        }
      ],
      "name": "Expired",
      "type": "error"
    },
    {
      "inputs": [],
      "name": "InvalidSignature",
      "type": "error"
    },
    {
      "inputs": [
        {
          "internalType": "uint256",
          "name": "validSince",
          "type": "uint256"
        }
      ],
      "name": "NotYetActive",
      "type": "error"
    },
    {
      "anonymous": false,
      "inputs": [
        {
          "indexed": true,
          "internalType": "bytes32",
          "name": "voucherHash",
          "type": "bytes32"
        },
        {
          "indexed": false,
          "internalType": "address",
          "name": "delegate",
          "type": "address"
        }
      ],
      "name": "VoucherServed",
      "type": "event"
    },
    {
      "inputs": [],
      "name": "PERMIT_AND_PURCHASE_VOUCHER_TAG",
      "outputs": [
        {
          "internalType": "uint32",
          "name": "",
          "type": "uint32"
        }
      ],
      "stateMutability": "view",
      "type": "function"
    },
    {
      "inputs": [],
      "name": "PURCHASE_VOUCHER_TAG",
      "outputs": [
        {
          "internalType": "uint32",
          "name": "",
          "type": "uint32"
        }
      ],
      "stateMutability": "view",
      "type": "function"
    },
    {
      "inputs": [],
      "name": "VOUCHER_TYPEHASH",
      "outputs": [
        {
          "internalType": "bytes32",
          "name": "",
          "type": "bytes32"
        }
      ],
      "stateMutability": "view",
      "type": "function"
    },
    {
      "inputs": [
        {
          "internalType": "uint256",
          "name": "nonce",
          "type": "uint256"
        },
        {
          "internalType": "uint256",
          "name": "validUntil",
          "type": "uint256"
        },
        {
          "internalType": "address",
          "name": "from",
          "type": "address"
        },
        {
          "internalType": "uint256",
          "name": "amount",
          "type": "uint256"
        },
        {
          "internalType": "uint8",
          "name": "v",
          "type": "uint8"
        },
        {
          "internalType": "bytes32",
          "name": "r",
          "type": "bytes32"
        },
        {
          "internalType": "bytes32",
          "name": "s",
          "type": "bytes32"
        },
        {
          "internalType": "string",
          "name": "message",
          "type": "string"
        }
      ],
      "name": "buildPermitAndPurchaseVoucher",
      "outputs": [
        {
          "components": [
            {
              "internalType": "uint32",
              "name": "tag",
              "type": "uint32"
            },
            {
              "internalType": "uint256",
              "name": "nonce",
              "type": "uint256"
            },
            {
              "internalType": "uint256",
              "name": "validSince",
              "type": "uint256"
            },
            {
              "internalType": "uint256",
              "name": "validUntil",
              "type": "uint256"
            },
            {
              "internalType": "bytes",
              "name": "payload",
              "type": "bytes"
            },
            {
              "internalType": "bytes",
              "name": "metadata",
              "type": "bytes"
            }
          ],
          "internalType": "struct IGateway.Voucher",
          "name": "voucher",
          "type": "tuple"
        }
      ],
      "stateMutability": "view",
      "type": "function"
    },
    {
      "inputs": [
        {
          "internalType": "uint256",
          "name": "nonce",
          "type": "uint256"
        },
        {
          "internalType": "address",
          "name": "from",
          "type": "address"
        },
        {
          "internalType": "uint256",
          "name": "amount",
          "type": "uint256"
        },
        {
          "internalType": "uint8",
          "name": "v",
          "type": "uint8"
        },
        {
          "internalType": "bytes32",
          "name": "r",
          "type": "bytes32"
        },
        {
          "internalType": "bytes32",
          "name": "s",
          "type": "bytes32"
        },
        {
          "internalType": "string",
          "name": "message",
          "type": "string"
        }
      ],
      "name": "buildPermitAndPurchaseVoucher",
      "outputs": [
        {
          "components": [
            {
              "internalType": "uint32",
              "name": "tag",
              "type": "uint32"
            },
            {
              "internalType": "uint256",
              "name": "nonce",
              "type": "uint256"
            },
            {
              "internalType": "uint256",
              "name": "validSince",
              "type": "uint256"
            },
            {
              "internalType": "uint256",
              "name": "validUntil",
              "type": "uint256"
            },
            {
              "internalType": "bytes",
              "name": "payload",
              "type": "bytes"
            },
            {
              "internalType": "bytes",
              "name": "metadata",
              "type": "bytes"
            }
          ],
          "internalType": "struct IGateway.Voucher",
          "name": "voucher",
          "type": "tuple"
        }
      ],
      "stateMutability": "view",
      "type": "function"
    },
    {
      "inputs": [
        {
          "internalType": "uint256",
          "name": "nonce",
          "type": "uint256"
        },
        {
          "internalType": "uint256",
          "name": "validSince",
          "type": "uint256"
        },
        {
          "internalType": "uint256",
          "name": "validUntil",
          "type": "uint256"
        },
        {
          "internalType": "address",
          "name": "from",
          "type": "address"
        },
        {
          "internalType": "uint256",
          "name": "amount",
          "type": "uint256"
        },
        {
          "internalType": "uint8",
          "name": "v",
          "type": "uint8"
        },
        {
          "internalType": "bytes32",
          "name": "r",
          "type": "bytes32"
        },
        {
          "internalType": "bytes32",
          "name": "s",
          "type": "bytes32"
        },
        {
          "internalType": "string",
          "name": "message",
          "type": "string"
        }
      ],
      "name": "buildPermitAndPurchaseVoucher",
      "outputs": [
        {
          "components": [
            {
              "internalType": "uint32",
              "name": "tag",
              "type": "uint32"
            },
            {
              "internalType": "uint256",
              "name": "nonce",
              "type": "uint256"
            },
            {
              "internalType": "uint256",
              "name": "validSince",
              "type": "uint256"
            },
            {
              "internalType": "uint256",
              "name": "validUntil",
              "type": "uint256"
            },
            {
              "internalType": "bytes",
              "name": "payload",
              "type": "bytes"
            },
            {
              "internalType": "bytes",
              "name": "metadata",
              "type": "bytes"
            }
          ],
          "internalType": "struct IGateway.Voucher",
          "name": "voucher",
          "type": "tuple"
        }
      ],
      "stateMutability": "pure",
      "type": "function"
    },
    {
      "inputs": [
        {
          "internalType": "uint256",
          "name": "nonce",
          "type": "uint256"
        },
        {
          "internalType": "address",
          "name": "from",
          "type": "address"
        },
        {
          "internalType": "uint256",
          "name": "amount",
          "type": "uint256"
        },
        {
          "internalType": "string",
          "name": "message",
          "type": "string"
        }
      ],
      "name": "buildPurchaseVoucher",
      "outputs": [
        {
          "components": [
            {
              "internalType": "uint32",
              "name": "tag",
              "type": "uint32"
            },
            {
              "internalType": "uint256",
              "name": "nonce",
              "type": "uint256"
            },
            {
              "internalType": "uint256",
              "name": "validSince",
              "type": "uint256"
            },
            {
              "internalType": "uint256",
              "name": "validUntil",
              "type": "uint256"
            },
            {
              "internalType": "bytes",
              "name": "payload",
              "type": "bytes"
            },
            {
              "internalType": "bytes",
              "name": "metadata",
              "type": "bytes"
            }
          ],
          "internalType": "struct IGateway.Voucher",
          "name": "voucher",
          "type": "tuple"
        }
      ],
      "stateMutability": "view",
      "type": "function"
    },
    {
      "inputs": [
        {
          "internalType": "uint256",
          "name": "nonce",
          "type": "uint256"
        },
        {
          "internalType": "uint256",
          "name": "validUntil",
          "type": "uint256"
        },
        {
          "internalType": "address",
          "name": "from",
          "type": "address"
        },
        {
          "internalType": "uint256",
          "name": "amount",
          "type": "uint256"
        },
        {
          "internalType": "string",
          "name": "message",
          "type": "string"
        }
      ],
      "name": "buildPurchaseVoucher",
      "outputs": [
        {
          "components": [
            {
              "internalType": "uint32",
              "name": "tag",
              "type": "uint32"
            },
            {
              "internalType": "uint256",
              "name": "nonce",
              "type": "uint256"
            },
            {
              "internalType": "uint256",
              "name": "validSince",
              "type": "uint256"
            },
            {
              "internalType": "uint256",
              "name": "validUntil",
              "type": "uint256"
            },
            {
              "internalType": "bytes",
              "name": "payload",
              "type": "bytes"
            },
            {
              "internalType": "bytes",
              "name": "metadata",
              "type": "bytes"
            }
          ],
          "internalType": "struct IGateway.Voucher",
          "name": "voucher",
          "type": "tuple"
        }
      ],
      "stateMutability": "view",
      "type": "function"
    },
    {
      "inputs": [
        {
          "internalType": "uint256",
          "name": "nonce",
          "type": "uint256"
        },
        {
          "internalType": "uint256",
          "name": "validSince",
          "type": "uint256"
        },
        {
          "internalType": "uint256",
          "name": "validUntil",
          "type": "uint256"
        },
        {
          "internalType": "address",
          "name": "from",
          "type": "address"
        },
        {
          "internalType": "uint256",
          "name": "amount",
          "type": "uint256"
        },
        {
          "internalType": "string",
          "name": "message",
          "type": "string"
        }
      ],
      "name": "buildPurchaseVoucher",
      "outputs": [
        {
          "components": [
            {
              "internalType": "uint32",
              "name": "tag",
              "type": "uint32"
            },
            {
              "internalType": "uint256",
              "name": "nonce",
              "type": "uint256"
            },
            {
              "internalType": "uint256",
              "name": "validSince",
              "type": "uint256"
            },
            {
              "internalType": "uint256",
              "name": "validUntil",
              "type": "uint256"
            },
            {
              "internalType": "bytes",
              "name": "payload",
              "type": "bytes"
            },
            {
              "internalType": "bytes",
              "name": "metadata",
              "type": "bytes"
            }
          ],
          "internalType": "struct IGateway.Voucher",
          "name": "voucher",
          "type": "tuple"
        }
      ],
      "stateMutability": "pure",
      "type": "function"
    },
    {
      "inputs": [],
      "name": "destination",
      "outputs": [
        {
          "internalType": "address",
          "name": "theDestination",
          "type": "address"
        }
      ],
      "stateMutability": "view",
      "type": "function"
    },
    {
      "inputs": [
        {
          "components": [
            {
              "internalType": "uint32",
              "name": "tag",
              "type": "uint32"
            },
            {
              "internalType": "uint256",
              "name": "nonce",
              "type": "uint256"
            },
            {
              "internalType": "uint256",
              "name": "validSince",
              "type": "uint256"
            },
            {
              "internalType": "uint256",
              "name": "validUntil",
              "type": "uint256"
            },
            {
              "internalType": "bytes",
              "name": "payload",
              "type": "bytes"
            },
            {
              "internalType": "bytes",
              "name": "metadata",
              "type": "bytes"
            }
          ],
          "internalType": "struct IGateway.Voucher",
          "name": "voucher",
          "type": "tuple"
        }
      ],
      "name": "hashVoucher",
      "outputs": [
        {
          "internalType": "bytes32",
          "name": "voucherHash",
          "type": "bytes32"
        }
      ],
      "stateMutability": "view",
      "type": "function"
    },
    {
      "inputs": [
        {
          "internalType": "bytes[]",
          "name": "data",
          "type": "bytes[]"
        }
      ],
      "name": "multicall",
      "outputs": [
        {
          "internalType": "bytes[]",
          "name": "results",
          "type": "bytes[]"
        }
      ],
      "stateMutability": "nonpayable",
      "type": "function"
    },
    {
      "inputs": [
        {
          "components": [
            {
              "internalType": "uint32",
              "name": "tag",
              "type": "uint32"
            },
            {
              "internalType": "uint256",
              "name": "nonce",
              "type": "uint256"
            },
            {
              "internalType": "uint256",
              "name": "validSince",
              "type": "uint256"
            },
            {
              "internalType": "uint256",
              "name": "validUntil",
              "type": "uint256"
            },
            {
              "internalType": "bytes",
              "name": "payload",
              "type": "bytes"
            },
            {
              "internalType": "bytes",
              "name": "metadata",
              "type": "bytes"
            }
          ],
          "internalType": "struct IGateway.Voucher",
          "name": "voucher",
          "type": "tuple"
        },
        {
          "internalType": "bytes32",
          "name": "r",
          "type": "bytes32"
        },
        {
          "internalType": "bytes32",
          "name": "s",
          "type": "bytes32"
        },
        {
          "internalType": "uint8",
          "name": "v",
          "type": "uint8"
        }
      ],
      "name": "serveVoucher",
      "outputs": [],
      "stateMutability": "nonpayable",
      "type": "function"
    },
    {
      "inputs": [
        {
          "components": [
            {
              "internalType": "uint32",
              "name": "tag",
              "type": "uint32"
            },
            {
              "internalType": "uint256",
              "name": "nonce",
              "type": "uint256"
            },
            {
              "internalType": "uint256",
              "name": "validSince",
              "type": "uint256"
            },
            {
              "internalType": "uint256",
              "name": "validUntil",
              "type": "uint256"
            },
            {
              "internalType": "bytes",
              "name": "payload",
              "type": "bytes"
            },
            {
              "internalType": "bytes",
              "name": "metadata",
              "type": "bytes"
            }
          ],
          "internalType": "struct IGateway.Voucher",
          "name": "voucher",
          "type": "tuple"
        },
        {
          "internalType": "bytes",
          "name": "signature",
          "type": "bytes"
        }
      ],
      "name": "serveVoucher",
      "outputs": [],
      "stateMutability": "nonpayable",
      "type": "function"
    },
    {
      "inputs": [
        {
          "components": [
            {
              "internalType": "uint32",
              "name": "tag",
              "type": "uint32"
            },
            {
              "internalType": "uint256",
              "name": "nonce",
              "type": "uint256"
            },
            {
              "internalType": "uint256",
              "name": "validSince",
              "type": "uint256"
            },
            {
              "internalType": "uint256",
              "name": "validUntil",
              "type": "uint256"
            },
            {
              "internalType": "bytes",
              "name": "payload",
              "type": "bytes"
            },
            {
              "internalType": "bytes",
              "name": "metadata",
              "type": "bytes"
            }
          ],
          "internalType": "struct IGateway.Voucher",
          "name": "voucher",
          "type": "tuple"
        }
      ],
      "name": "stringifyVoucher",
      "outputs": [
        {
          "internalType": "string",
          "name": "voucherString",
          "type": "string"
        }
      ],
      "stateMutability": "view",
      "type": "function"
    },
    {
      "inputs": [
        {
          "internalType": "bytes4",
          "name": "interfaceId",
          "type": "bytes4"
        }
      ],
      "name": "supportsInterface",
      "outputs": [
        {
          "internalType": "bool",
          "name": "",
          "type": "bool"
        }
      ],
      "stateMutability": "view",
      "type": "function"
    },
    {
      "inputs": [],
      "name": "token",
      "outputs": [
        {
          "internalType": "address",
          "name": "theToken",
          "type": "address"
        }
      ],
      "stateMutability": "view",
      "type": "function"
    },
    {
      "inputs": [
        {
          "components": [
            {
              "internalType": "uint32",
              "name": "tag",
              "type": "uint32"
            },
            {
              "internalType": "uint256",
              "name": "nonce",
              "type": "uint256"
            },
            {
              "internalType": "uint256",
              "name": "validSince",
              "type": "uint256"
            },
            {
              "internalType": "uint256",
              "name": "validUntil",
              "type": "uint256"
            },
            {
              "internalType": "bytes",
              "name": "payload",
              "type": "bytes"
            },
            {
              "internalType": "bytes",
              "name": "metadata",
              "type": "bytes"
            }
          ],
          "internalType": "struct IGateway.Voucher",
          "name": "voucher",
          "type": "tuple"
        },
        {
          "internalType": "bytes32",
          "name": "r",
          "type": "bytes32"
        },
        {
          "internalType": "bytes32",
          "name": "s",
          "type": "bytes32"
        },
        {
          "internalType": "uint8",
          "name": "v",
          "type": "uint8"
        }
      ],
      "name": "validateVoucher",
      "outputs": [],
      "stateMutability": "view",
      "type": "function"
    },
    {
      "inputs": [
        {
          "components": [
            {
              "internalType": "uint32",
              "name": "tag",
              "type": "uint32"
            },
            {
              "internalType": "uint256",
              "name": "nonce",
              "type": "uint256"
            },
            {
              "internalType": "uint256",
              "name": "validSince",
              "type": "uint256"
            },
            {
              "internalType": "uint256",
              "name": "validUntil",
              "type": "uint256"
            },
            {
              "internalType": "bytes",
              "name": "payload",
              "type": "bytes"
            },
            {
              "internalType": "bytes",
              "name": "metadata",
              "type": "bytes"
            }
          ],
          "internalType": "struct IGateway.Voucher",
          "name": "voucher",
          "type": "tuple"
        },
        {
          "internalType": "bytes",
          "name": "signature",
          "type": "bytes"
        }
      ],
      "name": "validateVoucher",
      "outputs": [],
      "stateMutability": "view",
      "type": "function"
    },
    {
      "inputs": [
        {
          "internalType": "bytes32",
          "name": "",
          "type": "bytes32"
        }
      ],
      "name": "voucherServed",
      "outputs": [
        {
          "internalType": "bool",
          "name": "",
          "type": "bool"
        }
      ],
      "stateMutability": "view",
      "type": "function"
    }
  ],
  "transactionHash": "0x661602572e8140eac40486380e583e5ea947cd355ddf45b8aaa9f26d03ce136b",
  "args": [
    "0x78a486306D15E7111cca541F2f1307a1cFCaF5C4",
    "0x4BADCf0DCeaAD060f86D9b34c9E118c8319945AE"
  ],
  "numDeployments": 3,
  "solcInputHash": "1b20487334fc2dfe1f743b15d72bc9e6",
  "bytecode": "0x60c06040523480156200001157600080fd5b5060405162003c6c38038062003c6c83398101604081905262000034916200089e565b600160008181556001600160a01b03848116608052831660a05260408051606081018252620001a0602090811b6200094d176001600160401b039081168352620001cd821b62000976178116828401908152620001f6831b6200099b17821694840194855263a681b763909552949052517fed1379435e089df6cff13d37b3604fa470989a1f29c053538c9eb1ba46387e9a8054935192518516600160801b02600160801b600160c01b031993861668010000000000000000026001600160801b031990951692909516919091179290921716919091179055620001987ff7d719823c8a23d19efc4eacc1963ff9c7d7bcf57ddbb5747243f182c5dc0b4e60e01c60405180606001604052806200031260201b62000a95176001600160401b031681526020016200033f60201b62000abe176001600160401b031681526020016200036060201b62000adb176001600160401b03168152506200029f60201b60201c565b505062000c4e565b60606000620001b36080840184620008dd565b810190620001c2919062000a02565b60a001519392505050565b600080620001df6080840184620008dd565b810190620001ee919062000a02565b519392505050565b6000620002076080830183620008dd565b81019062000216919062000a02565b90506200025d816000015160a051600019808560400151866060015187608001516080516001600160a01b0316620003c160201b62000b611790979695949392919060201c565b6020810151156200029b576200029b816000015160a05183602001516080516001600160a01b0316620005a760201b62000da017909392919060201c565b5050565b63ffffffff909116600090815260016020908152604091829020835181549285015193909401516001600160401b03908116600160801b02600160801b600160c01b031994821668010000000000000000026001600160801b031990941691909516179190911791909116919091179055565b60606000620003256080840184620008dd565b81019062000334919062000ac5565b604001519392505050565b600080620003516080840184620008dd565b810190620001ee919062000ac5565b6000620003716080830183620008dd565b81019062000380919062000ac5565b6020810151909150156200029b576200029b816000015160a05183602001516080516001600160a01b0316620005a760201b62000da017909392919060201c565b604051623f675f60e91b81526001600160a01b038881166004830152600091908a1690637ecebe0090602401602060405180830381865afa1580156200040b573d6000803e3d6000fd5b505050506040513d601f19601f8201168201806040525081019062000431919062000b6f565b60405163d505accf60e01b81526001600160a01b038a811660048301528981166024830152604482018990526064820188905260ff8716608483015260a4820186905260c48201859052919250908a169063d505accf9060e401600060405180830381600087803b158015620004a657600080fd5b505af1158015620004bb573d6000803e3d6000fd5b5050604051623f675f60e91b81526001600160a01b038b81166004830152600093508c169150637ecebe0090602401602060405180830381865afa15801562000508573d6000803e3d6000fd5b505050506040513d601f19601f820116820180604052508101906200052e919062000b6f565b90506200053d82600162000b89565b81146200059b5760405162461bcd60e51b815260206004820152602160248201527f5361666545524332303a207065726d697420646964206e6f74207375636365656044820152601960fa1b60648201526084015b60405180910390fd5b50505050505050505050565b604080516001600160a01b0385811660248301528416604482015260648082018490528251808303909101815260849091019091526020810180516001600160e01b039081166323b872dd60e01b17909152620006079186916200060d16565b50505050565b600062000669826040518060400160405280602081526020017f5361666545524332303a206c6f772d6c6576656c2063616c6c206661696c6564815250856001600160a01b0316620006f060201b62000e28179092919060201c565b805190915015620006eb57808060200190518101906200068a919062000bb1565b620006eb5760405162461bcd60e51b815260206004820152602a60248201527f5361666545524332303a204552433230206f7065726174696f6e20646964206e6044820152691bdd081cdd58d8d9595960b21b606482015260840162000592565b505050565b60606200070184846000856200070b565b90505b9392505050565b6060824710156200076e5760405162461bcd60e51b815260206004820152602660248201527f416464726573733a20696e73756666696369656e742062616c616e636520666f6044820152651c8818d85b1b60d21b606482015260840162000592565b6001600160a01b0385163b620007c75760405162461bcd60e51b815260206004820152601d60248201527f416464726573733a2063616c6c20746f206e6f6e2d636f6e7472616374000000604482015260640162000592565b600080866001600160a01b03168587604051620007e5919062000bfb565b60006040518083038185875af1925050503d806000811462000824576040519150601f19603f3d011682016040523d82523d6000602084013e62000829565b606091505b5090925090506200083c82828662000847565b979650505050505050565b606083156200085857508162000704565b825115620008695782518084602001fd5b8160405162461bcd60e51b815260040162000592919062000c19565b6001600160a01b03811681146200089b57600080fd5b50565b60008060408385031215620008b257600080fd5b8251620008bf8162000885565b6020840151909250620008d28162000885565b809150509250929050565b6000808335601e19843603018112620008f557600080fd5b8301803591506001600160401b038211156200091057600080fd5b6020019150368190038213156200092657600080fd5b9250929050565b634e487b7160e01b600052604160045260246000fd5b60405160c081016001600160401b03811182821017156200096857620009686200092d565b60405290565b600082601f8301126200098057600080fd5b81356001600160401b03808211156200099d576200099d6200092d565b604051601f8301601f19908116603f01168101908282118183101715620009c857620009c86200092d565b81604052838152866020858801011115620009e257600080fd5b836020870160208301376000602085830101528094505050505092915050565b60006020828403121562000a1557600080fd5b81356001600160401b038082111562000a2d57600080fd5b9083019060c0828603121562000a4257600080fd5b62000a4c62000943565b823562000a598162000885565b815260208381013590820152604083013560ff8116811462000a7a57600080fd5b80604083015250606083013560608201526080830135608082015260a08301358281111562000aa857600080fd5b62000ab6878286016200096e565b60a08301525095945050505050565b60006020828403121562000ad857600080fd5b81356001600160401b038082111562000af057600080fd5b908301906060828603121562000b0557600080fd5b60405160608101818110838211171562000b235762000b236200092d565b604052823562000b338162000885565b81526020838101359082015260408301358281111562000b5257600080fd5b62000b60878286016200096e565b60408301525095945050505050565b60006020828403121562000b8257600080fd5b5051919050565b8082018082111562000bab57634e487b7160e01b600052601160045260246000fd5b92915050565b60006020828403121562000bc457600080fd5b815180151581146200070457600080fd5b60005b8381101562000bf257818101518382015260200162000bd8565b50506000910152565b6000825162000c0f81846020870162000bd5565b9190910192915050565b602081526000825180602084015262000c3a81604085016020870162000bd5565b601f01601f19169190910160400192915050565b60805160a051612fce62000c9e600039600081816102f2015281816109fd01528181610a6c0152610b3c015260008181610378015281816109d901528181610a490152610b190152612fce6000f3fe608060405234801561001057600080fd5b506004361061016c5760003560e01c80639ae3be29116100cd578063c616f21d11610081578063ce6b5b0411610066578063ce6b5b0414610350578063e2d8b9c714610363578063fc0c546a1461037657600080fd5b8063c616f21d1461032a578063c83909f61461033d57600080fd5b8063a3099cac116100b2578063a3099cac146102bd578063ac9650d8146102d0578063b269681d146102f057600080fd5b80639ae3be291461028a578063a2576e7e1461029d57600080fd5b80635c42187f1161012457806389a7f48e1161010957806389a7f48e146102355780638bb185441461025857806394739e871461026357600080fd5b80635c42187f1461020d5780635f9b7b471461022257600080fd5b80630f443671116101555780630f443671146101ba5780633203872d146101da578063370ab341146101fa57600080fd5b806301ffc9a7146101715780630aa8610614610199575b600080fd5b61018461017f3660046120a1565b61039c565b60405190151581526020015b60405180910390f35b6101ac6101a73660046120fb565b6103f8565b604051908152602001610190565b6101cd6101c836600461219f565b610403565b6040516101909190612287565b6101e563f7d7198281565b60405163ffffffff9091168152602001610190565b6101cd6102083660046122f7565b610462565b61022061021b366004612382565b6104cb565b005b6101cd6102303660046123e3565b61058c565b610184610243366004612486565b60026020526000908152604090205460ff1681565b6101e563a681b76381565b6101ac7f3c4eccc58df3b1fa05ba717589f6675a1af0cfee2fe59126957513d39f45d1ce81565b6101cd61029836600461249f565b6105ec565b6102b06102ab3660046120fb565b61064f565b6040516101909190612507565b6102206102cb36600461251a565b61065a565b6102e36102de366004612583565b6106fe565b60405161019091906125f8565b7f00000000000000000000000000000000000000000000000000000000000000005b6040516001600160a01b039091168152602001610190565b6101cd610338366004612678565b6107f3565b61022061034b366004612382565b61084c565b61022061035e36600461251a565b6108ad565b6101cd6103713660046126e9565b6108f3565b7f0000000000000000000000000000000000000000000000000000000000000000610312565b60007fffffffff0000000000000000000000000000000000000000000000000000000082167f979d37f30000000000000000000000000000000000000000000000000000000014806103f257506103f282610e41565b92915050565b60006103f282610ed8565b6104426040518060c00160405280600063ffffffff16815260200160008152602001600081526020016000815260200160608152602001606081525090565b6104548a428b8b8b8b8b8b8b8b610eeb565b9a9950505050505050505050565b6104a16040518060c00160405280600063ffffffff16815260200160008152602001600081526020016000815260200160608152602001606081525090565b6104be89426104b281610e1061277a565b8b8b8b8b8b8b8b610eeb565b9998505050505050505050565b6002600054036105225760405162461bcd60e51b815260206004820152601f60248201527f5265656e7472616e637947756172643a207265656e7472616e742063616c6c0060448201526064015b60405180910390fd5b600260005560408051602081018590528082018490527fff0000000000000000000000000000000000000000000000000000000000000060f884901b166060820152815180820360410181526061909101909152610581908590611026565b505060016000555050565b6105cb6040518060c00160405280600063ffffffff16815260200160008152602001600081526020016000815260200160608152602001606081525090565b6105dd8b8b8b8b8b8b8b8b8b8b610eeb565b9b9a5050505050505050505050565b61062b6040518060c00160405280600063ffffffff16815260200160008152602001600081526020016000815260200160608152602001606081525090565b610645864261063c81610e1061277a565b888888886110b7565b9695505050505050565b60606103f2826111da565b6002600054036106ac5760405162461bcd60e51b815260206004820152601f60248201527f5265656e7472616e637947756172643a207265656e7472616e742063616c6c006044820152606401610519565b60026000819055506106f48383838080601f01602080910402602001604051908101604052809392919081815260200183838082843760009201919091525061102692505050565b5050600160005550565b60608167ffffffffffffffff8111156107195761071961278d565b60405190808252806020026020018201604052801561074c57816020015b60608152602001906001900390816107375790505b50905060005b828110156107ec576107bc30858584818110610770576107706127a3565b905060200281019061078291906127b9565b8080601f01602080910402602001604051908101604052809392919081815260200183838082843760009201919091525061170192505050565b8282815181106107ce576107ce6127a3565b602002602001018190525080806107e49061281e565b915050610752565b5092915050565b6108326040518060c00160405280600063ffffffff16815260200160008152602001600081526020016000815260200160608152602001606081525090565b610841874288888888886110b7565b979650505050505050565b60408051602081018590528082018490527fff0000000000000000000000000000000000000000000000000000000000000060f884901b1660608201528151808203604101815260619091019091526108a6908590611726565b5050505050565b6108ed8383838080601f01602080910402602001604051908101604052809392919081815260200183838082843760009201919091525061172692505050565b50505050565b6109326040518060c00160405280600063ffffffff16815260200160008152602001600081526020016000815260200160608152602001606081525090565b610941888888888888886110b7565b98975050505050505050565b6060600061095e60808401846127b9565b81019061096b9190612910565b60a001519392505050565b60008061098660808401846127b9565b8101906109939190612910565b519392505050565b60006109aa60808301836127b9565b8101906109b79190612910565b8051604082015160608301516080840151939450610a2a936001600160a01b037f00000000000000000000000000000000000000000000000000000000000000001693927f0000000000000000000000000000000000000000000000000000000000000000926000199283929190610b61565b602081015115610a915780516020820151610a91916001600160a01b037f000000000000000000000000000000000000000000000000000000000000000016917f000000000000000000000000000000000000000000000000000000000000000090610da0565b5050565b60606000610aa660808401846127b9565b810190610ab391906129bd565b604001519392505050565b600080610ace60808401846127b9565b81019061099391906129bd565b6000610aea60808301836127b9565b810190610af791906129bd565b602081015190915015610a915780516020820151610a91916001600160a01b037f000000000000000000000000000000000000000000000000000000000000000016917f000000000000000000000000000000000000000000000000000000000000000090610da0565b6040517f7ecebe000000000000000000000000000000000000000000000000000000000081526001600160a01b038881166004830152600091908a1690637ecebe0090602401602060405180830381865afa158015610bc4573d6000803e3d6000fd5b505050506040513d601f19601f82011682018060405250810190610be89190612a5b565b6040517fd505accf0000000000000000000000000000000000000000000000000000000081526001600160a01b038a811660048301528981166024830152604482018990526064820188905260ff8716608483015260a4820186905260c48201859052919250908a169063d505accf9060e401600060405180830381600087803b158015610c7557600080fd5b505af1158015610c89573d6000803e3d6000fd5b50506040517f7ecebe000000000000000000000000000000000000000000000000000000000081526001600160a01b038b81166004830152600093508c169150637ecebe0090602401602060405180830381865afa158015610cef573d6000803e3d6000fd5b505050506040513d601f19601f82011682018060405250810190610d139190612a5b565b9050610d2082600161277a565b8114610d945760405162461bcd60e51b815260206004820152602160248201527f5361666545524332303a207065726d697420646964206e6f742073756363656560448201527f64000000000000000000000000000000000000000000000000000000000000006064820152608401610519565b50505050505050505050565b604080516001600160a01b0385811660248301528416604482015260648082018490528251808303909101815260849091019091526020810180517bffffffffffffffffffffffffffffffffffffffffffffffffffffffff167f23b872dd000000000000000000000000000000000000000000000000000000001790526108ed90859061184e565b6060610e378484600085611938565b90505b9392505050565b60007fffffffff0000000000000000000000000000000000000000000000000000000082167f4c32b3500000000000000000000000000000000000000000000000000000000014806103f257507f01ffc9a7000000000000000000000000000000000000000000000000000000007fffffffff000000000000000000000000000000000000000000000000000000008316146103f2565b60006103f2610ee6836111da565b611a75565b610f2a6040518060c00160405280600063ffffffff16815260200160008152602001600081526020016000815260200160608152602001606081525090565b6040518060c001604052807fa681b7637c5ed2feda69f41cc9a534ac17fcd118d80d10db879b348157ebd93460e01c63ffffffff1681526020018c81526020018b81526020018a81526020016040518060c001604052808b6001600160a01b031681526020018a81526020018960ff16815260200188815260200187815260200186868080601f0160208091040260200160405190810160405280939291908181526020018383808284376000920191909152505050915250604051610ff39190602001612a74565b60408051601f1981840301815291815290825280516020818101909252600081529101529b9a5050505050505050505050565b60006110328383611726565b600081815260026020526040902080547fffffffffffffffffffffffffffffffffffffffffffffffffffffffffffffff00166001179055905061107483611ab0565b807fd193a54dd0b0b5884cffc665f0803faa8d7f44280881b0a277878158bebd4c5d336040516001600160a01b03909116815260200160405180910390a2505050565b6110f66040518060c00160405280600063ffffffff16815260200160008152602001600081526020016000815260200160608152602001606081525090565b6040518060c001604052807ff7d719823c8a23d19efc4eacc1963ff9c7d7bcf57ddbb5747243f182c5dc0b4e60e01c63ffffffff1681526020018981526020018881526020018781526020016040518060600160405280886001600160a01b0316815260200187815260200186868080601f01602080910402602001604051908101604052809392919081815260200183838082843760009201919091525050509152506040516111aa9190602001612acd565b60408051601f19818403018152918152908252805160208181019092526000815291015298975050505050505050565b60606111e582611aff565b6040516020016111f59190612b05565b60408051601f198184030181529190526112126020840184612b2a565b6040517f6900a3ae00000000000000000000000000000000000000000000000000000000815263ffffffff9091166004820152731b6286EBdFeba70A8579E987A46Ee00cC737057290636900a3ae90602401600060405180830381865af4158015611281573d6000803e3d6000fd5b505050506040513d6000823e601f3d908101601f191682016040526112a99190810190612b50565b6040516020016112b99190612bbe565b60408051808303601f19018152908290527f6900a3ae0000000000000000000000000000000000000000000000000000000082526020850135600483015290731b6286EBdFeba70A8579E987A46Ee00cC737057290636900a3ae90602401600060405180830381865af4158015611334573d6000803e3d6000fd5b505050506040513d6000823e601f3d908101601f1916820160405261135c9190810190612b50565b60405160200161136c9190612c0e565b60408051808303601f190181528282527f4b2dd5190000000000000000000000000000000000000000000000000000000083529086013564ffffffffff16600483015290731b6286EBdFeba70A8579E987A46Ee00cC737057290634b2dd51990602401600060405180830381865af41580156113ec573d6000803e3d6000fd5b505050506040513d6000823e601f3d908101601f191682016040526114149190810190612b50565b6040516020016114249190612c5e565b60408051808303601f19018152908290527f4b2dd519000000000000000000000000000000000000000000000000000000008252606087013564ffffffffff16600483015290731b6286EBdFeba70A8579E987A46Ee00cC737057290634b2dd51990602401600060405180830381865af41580156114a6573d6000803e3d6000fd5b505050506040513d6000823e601f3d908101601f191682016040526114ce9190810190612b50565b6040516020016114de9190612cae565b60408051601f198184030181529190526114fb60808801886127b9565b8080601f016020809104026020016040519081016040528093929190818152602001838380828437600092019190915250506040517f71aad10d000000000000000000000000000000000000000000000000000000008152731b6286EBdFeba70A8579E987A46Ee00cC7370572936371aad10d935061157e925090600401612507565b600060405180830381865af415801561159b573d6000803e3d6000fd5b505050506040513d6000823e601f3d908101601f191682016040526115c39190810190612b50565b6040516020016115d39190612ce6565b60408051601f198184030181529190526115f060a08901896127b9565b8080601f016020809104026020016040519081016040528093929190818152602001838380828437600092019190915250506040517f71aad10d000000000000000000000000000000000000000000000000000000008152731b6286EBdFeba70A8579E987A46Ee00cC7370572936371aad10d9350611673925090600401612507565b600060405180830381865af4158015611690573d6000803e3d6000fd5b505050506040513d6000823e601f3d908101601f191682016040526116b89190810190612b50565b6040516020016116c89190612d36565b60408051601f19818403018152908290526116eb97969594939291602001612d7b565b6040516020818303038152906040529050919050565b6060610e3a8383604051806060016040528060278152602001612f7260279139611b39565b6000826040013542101561176c57604080517fb27ee6fc000000000000000000000000000000000000000000000000000000008152908401356004820152602401610519565b42836060013510156117b0576040517ff80dbaea00000000000000000000000000000000000000000000000000000000815260608401356004820152602401610519565b6117b983610ed8565b60008181526002602052604090205490915060ff1615611805576040517f86a77a9700000000000000000000000000000000000000000000000000000000815260040160405180910390fd5b61181861181184611c23565b8284611c68565b6103f2576040517f8baa579f00000000000000000000000000000000000000000000000000000000815260040160405180910390fd5b60006118a3826040518060400160405280602081526020017f5361666545524332303a206c6f772d6c6576656c2063616c6c206661696c6564815250856001600160a01b0316610e289092919063ffffffff16565b80519091501561193357808060200190518101906118c19190612e42565b6119335760405162461bcd60e51b815260206004820152602a60248201527f5361666545524332303a204552433230206f7065726174696f6e20646964206e60448201527f6f742073756363656564000000000000000000000000000000000000000000006064820152608401610519565b505050565b6060824710156119b05760405162461bcd60e51b815260206004820152602660248201527f416464726573733a20696e73756666696369656e742062616c616e636520666f60448201527f722063616c6c00000000000000000000000000000000000000000000000000006064820152608401610519565b6001600160a01b0385163b611a075760405162461bcd60e51b815260206004820152601d60248201527f416464726573733a2063616c6c20746f206e6f6e2d636f6e74726163740000006044820152606401610519565b600080866001600160a01b03168587604051611a239190612e64565b60006040518083038185875af1925050503d8060008114611a60576040519150601f19603f3d011682016040523d82523d6000602084013e611a65565b606091505b5091509150610841828286611def565b6000611a818251611e28565b82604051602001611a93929190612e80565b604051602081830303815290604052805190602001209050919050565b611afc8160016000611ac56020840184612b2a565b63ffffffff908116825260208201929092526040016000205470010000000000000000000000000000000090048015612097021716565b50565b60606103f28260016000611b166020840184612b2a565b63ffffffff90811682526020820192909252604001600020546120978115021716565b60606001600160a01b0384163b611bb85760405162461bcd60e51b815260206004820152602660248201527f416464726573733a2064656c65676174652063616c6c20746f206e6f6e2d636f60448201527f6e747261637400000000000000000000000000000000000000000000000000006064820152608401610519565b600080856001600160a01b031685604051611bd39190612e64565b600060405180830381855af49150503d8060008114611c0e576040519150601f19603f3d011682016040523d82523d6000602084013e611c13565b606091505b5091509150610645828286611def565b60006103f282600183611c396020840184612b2a565b63ffffffff90811682526020820192909252604001600020546801000000000000000090048015612097021716565b6000806000611c778585611f65565b90925090506000816004811115611c9057611c90612edb565b148015611cae5750856001600160a01b0316826001600160a01b0316145b15611cbe57600192505050610e3a565b600080876001600160a01b0316631626ba7e60e01b8888604051602401611ce6929190612ef1565b60408051601f198184030181529181526020820180517bffffffffffffffffffffffffffffffffffffffffffffffffffffffff167fffffffff00000000000000000000000000000000000000000000000000000000909416939093179092529051611d519190612e64565b600060405180830381855afa9150503d8060008114611d8c576040519150601f19603f3d011682016040523d82523d6000602084013e611d91565b606091505b5091509150818015611da4575080516020145b8015610941575080517f1626ba7e0000000000000000000000000000000000000000000000000000000090611de29083016020908101908401612a5b565b1498975050505050505050565b60608315611dfe575081610e3a565b825115611e0e5782518084602001fd5b8160405162461bcd60e51b81526004016105199190612507565b606081600003611e6b57505060408051808201909152600181527f3000000000000000000000000000000000000000000000000000000000000000602082015290565b8160005b8115611e955780611e7f8161281e565b9150611e8e9050600a83612f20565b9150611e6f565b60008167ffffffffffffffff811115611eb057611eb061278d565b6040519080825280601f01601f191660200182016040528015611eda576020820181803683370190505b5090505b8415611f5d57611eef600183612f34565b9150611efc600a86612f47565b611f0790603061277a565b60f81b818381518110611f1c57611f1c6127a3565b60200101907effffffffffffffffffffffffffffffffffffffffffffffffffffffffffffff1916908160001a905350611f56600a86612f20565b9450611ede565b949350505050565b6000808251604103611f9b5760208301516040840151606085015160001a611f8f87828585611faa565b94509450505050611fa3565b506000905060025b9250929050565b6000807f7fffffffffffffffffffffffffffffff5d576e7357a4501ddfe92f46681b20a0831115611fe1575060009050600361208e565b8460ff16601b14158015611ff957508460ff16601c14155b1561200a575060009050600461208e565b6040805160008082526020820180845289905260ff881692820192909252606081018690526080810185905260019060a0016020604051602081039080840390855afa15801561205e573d6000803e3d6000fd5b5050604051601f1901519150506001600160a01b0381166120875760006001925092505061208e565b9150600090505b94509492505050565b61209f612f5b565b565b6000602082840312156120b357600080fd5b81357fffffffff0000000000000000000000000000000000000000000000000000000081168114610e3a57600080fd5b600060c082840312156120f557600080fd5b50919050565b60006020828403121561210d57600080fd5b813567ffffffffffffffff81111561212457600080fd5b611f5d848285016120e3565b80356001600160a01b038116811461214757600080fd5b919050565b803560ff8116811461214757600080fd5b60008083601f84011261216f57600080fd5b50813567ffffffffffffffff81111561218757600080fd5b602083019150836020828501011115611fa357600080fd5b60008060008060008060008060006101008a8c0312156121be57600080fd5b8935985060208a013597506121d560408b01612130565b965060608a013595506121ea60808b0161214c565b945060a08a0135935060c08a0135925060e08a013567ffffffffffffffff81111561221457600080fd5b6122208c828d0161215d565b915080935050809150509295985092959850929598565b60005b8381101561225257818101518382015260200161223a565b50506000910152565b60008151808452612273816020860160208601612237565b601f01601f19169290920160200192915050565b6020815263ffffffff82511660208201526020820151604082015260408201516060820152606082015160808201526000608083015160c060a08401526122d160e084018261225b565b905060a0840151601f198483030160c08501526122ee828261225b565b95945050505050565b60008060008060008060008060e0898b03121561231357600080fd5b8835975061232360208a01612130565b96506040890135955061233860608a0161214c565b94506080890135935060a0890135925060c089013567ffffffffffffffff81111561236257600080fd5b61236e8b828c0161215d565b999c989b5096995094979396929594505050565b6000806000806080858703121561239857600080fd5b843567ffffffffffffffff8111156123af57600080fd5b6123bb878288016120e3565b94505060208501359250604085013591506123d86060860161214c565b905092959194509250565b6000806000806000806000806000806101208b8d03121561240357600080fd5b8a35995060208b0135985060408b0135975061242160608c01612130565b965060808b0135955061243660a08c0161214c565b945060c08b0135935060e08b013592506101008b013567ffffffffffffffff81111561246157600080fd5b61246d8d828e0161215d565b915080935050809150509295989b9194979a5092959850565b60006020828403121561249857600080fd5b5035919050565b6000806000806000608086880312156124b757600080fd5b853594506124c760208701612130565b935060408601359250606086013567ffffffffffffffff8111156124ea57600080fd5b6124f68882890161215d565b969995985093965092949392505050565b602081526000610e3a602083018461225b565b60008060006040848603121561252f57600080fd5b833567ffffffffffffffff8082111561254757600080fd5b612553878388016120e3565b9450602086013591508082111561256957600080fd5b506125768682870161215d565b9497909650939450505050565b6000806020838503121561259657600080fd5b823567ffffffffffffffff808211156125ae57600080fd5b818501915085601f8301126125c257600080fd5b8135818111156125d157600080fd5b8660208260051b85010111156125e657600080fd5b60209290920196919550909350505050565b6000602080830181845280855180835260408601915060408160051b870101925083870160005b8281101561266b577fffffffffffffffffffffffffffffffffffffffffffffffffffffffffffffffc088860301845261265985835161225b565b9450928501929085019060010161261f565b5092979650505050505050565b60008060008060008060a0878903121561269157600080fd5b86359550602087013594506126a860408801612130565b935060608701359250608087013567ffffffffffffffff8111156126cb57600080fd5b6126d789828a0161215d565b979a9699509497509295939492505050565b600080600080600080600060c0888a03121561270457600080fd5b87359650602088013595506040880135945061272260608901612130565b93506080880135925060a088013567ffffffffffffffff81111561274557600080fd5b6127518a828b0161215d565b989b979a50959850939692959293505050565b634e487b7160e01b600052601160045260246000fd5b808201808211156103f2576103f2612764565b634e487b7160e01b600052604160045260246000fd5b634e487b7160e01b600052603260045260246000fd5b60008083357fffffffffffffffffffffffffffffffffffffffffffffffffffffffffffffffe18436030181126127ee57600080fd5b83018035915067ffffffffffffffff82111561280957600080fd5b602001915036819003821315611fa357600080fd5b6000600019820361283157612831612764565b5060010190565b60405160c0810167ffffffffffffffff8111828210171561285b5761285b61278d565b60405290565b604051601f8201601f1916810167ffffffffffffffff8111828210171561288a5761288a61278d565b604052919050565b600067ffffffffffffffff8211156128ac576128ac61278d565b50601f01601f191660200190565b600082601f8301126128cb57600080fd5b81356128de6128d982612892565b612861565b8181528460208386010111156128f357600080fd5b816020850160208301376000918101602001919091529392505050565b60006020828403121561292257600080fd5b813567ffffffffffffffff8082111561293a57600080fd5b9083019060c0828603121561294e57600080fd5b612956612838565b61295f83612130565b8152602083013560208201526129776040840161214c565b6040820152606083013560608201526080830135608082015260a0830135828111156129a257600080fd5b6129ae878286016128ba565b60a08301525095945050505050565b6000602082840312156129cf57600080fd5b813567ffffffffffffffff808211156129e757600080fd5b90830190606082860312156129fb57600080fd5b604051606081018181108382111715612a1657612a1661278d565b604052612a2283612130565b815260208301356020820152604083013582811115612a4057600080fd5b612a4c878286016128ba565b60408301525095945050505050565b600060208284031215612a6d57600080fd5b5051919050565b602081526001600160a01b0382511660208201526020820151604082015260ff604083015116606082015260608201516080820152608082015160a0820152600060a083015160c080840152611f5d60e084018261225b565b602081526001600160a01b0382511660208201526020820151604082015260006040830151606080840152611f5d608084018261225b565b60008251612b17818460208701612237565b600560f91b920191825250600101919050565b600060208284031215612b3c57600080fd5b813563ffffffff81168114610e3a57600080fd5b600060208284031215612b6257600080fd5b815167ffffffffffffffff811115612b7957600080fd5b8201601f81018413612b8a57600080fd5b8051612b986128d982612892565b818152856020838501011115612bad57600080fd5b6122ee826020830160208601612237565b7f7461673a20000000000000000000000000000000000000000000000000000000815260008251612bf6816005850160208701612237565b600560f91b6005939091019283015250600601919050565b7f6e6f6e63653a2000000000000000000000000000000000000000000000000000815260008251612c46816007850160208701612237565b600560f91b6007939091019283015250600801919050565b7f76616c69642073696e63653a2000000000000000000000000000000000000000815260008251612c9681600d850160208701612237565b600560f91b600d939091019283015250600e01919050565b7f76616c696420756e74696c3a2000000000000000000000000000000000000000815260008251612c9681600d850160208701612237565b7f7061796c6f61643a200000000000000000000000000000000000000000000000815260008251612d1e816009850160208701612237565b600560f91b6009939091019283015250600a01919050565b7f6d657461646174613a2000000000000000000000000000000000000000000000815260008251612d6e81600a850160208701612237565b91909101600a0192915050565b600088516020612d8e8285838e01612237565b81840191507f2d2d2d0a00000000000000000000000000000000000000000000000000000000825260048a51612dc981838601858f01612237565b8a51930192612ddd81838601858e01612237565b8951930192612df181838601858d01612237565b8851930192612e0581838601858c01612237565b8751930192612e1981838601858b01612237565b8651930192612e2d81838601858a01612237565b929092019091019a9950505050505050505050565b600060208284031215612e5457600080fd5b81518015158114610e3a57600080fd5b60008251612e76818460208701612237565b9190910192915050565b7f19457468657265756d205369676e6564204d6573736167653a0a000000000000815260008351612eb881601a850160208801612237565b835190830190612ecf81601a840160208801612237565b01601a01949350505050565b634e487b7160e01b600052602160045260246000fd5b828152604060208201526000610e37604083018461225b565b634e487b7160e01b600052601260045260246000fd5b600082612f2f57612f2f612f0a565b500490565b818103818111156103f2576103f2612764565b600082612f5657612f56612f0a565b500690565b634e487b7160e01b600052605160045260246000fdfe416464726573733a206c6f772d6c6576656c2064656c65676174652063616c6c206661696c6564a2646970667358221220baef73bfb0744f7baed3bebd7058c3c9f7a66417a3e6a3997c174db206c54a5464736f6c63430008110033",
  "deployedBytecode": "0x608060405234801561001057600080fd5b506004361061016c5760003560e01c80639ae3be29116100cd578063c616f21d11610081578063ce6b5b0411610066578063ce6b5b0414610350578063e2d8b9c714610363578063fc0c546a1461037657600080fd5b8063c616f21d1461032a578063c83909f61461033d57600080fd5b8063a3099cac116100b2578063a3099cac146102bd578063ac9650d8146102d0578063b269681d146102f057600080fd5b80639ae3be291461028a578063a2576e7e1461029d57600080fd5b80635c42187f1161012457806389a7f48e1161010957806389a7f48e146102355780638bb185441461025857806394739e871461026357600080fd5b80635c42187f1461020d5780635f9b7b471461022257600080fd5b80630f443671116101555780630f443671146101ba5780633203872d146101da578063370ab341146101fa57600080fd5b806301ffc9a7146101715780630aa8610614610199575b600080fd5b61018461017f3660046120a1565b61039c565b60405190151581526020015b60405180910390f35b6101ac6101a73660046120fb565b6103f8565b604051908152602001610190565b6101cd6101c836600461219f565b610403565b6040516101909190612287565b6101e563f7d7198281565b60405163ffffffff9091168152602001610190565b6101cd6102083660046122f7565b610462565b61022061021b366004612382565b6104cb565b005b6101cd6102303660046123e3565b61058c565b610184610243366004612486565b60026020526000908152604090205460ff1681565b6101e563a681b76381565b6101ac7f3c4eccc58df3b1fa05ba717589f6675a1af0cfee2fe59126957513d39f45d1ce81565b6101cd61029836600461249f565b6105ec565b6102b06102ab3660046120fb565b61064f565b6040516101909190612507565b6102206102cb36600461251a565b61065a565b6102e36102de366004612583565b6106fe565b60405161019091906125f8565b7f00000000000000000000000000000000000000000000000000000000000000005b6040516001600160a01b039091168152602001610190565b6101cd610338366004612678565b6107f3565b61022061034b366004612382565b61084c565b61022061035e36600461251a565b6108ad565b6101cd6103713660046126e9565b6108f3565b7f0000000000000000000000000000000000000000000000000000000000000000610312565b60007fffffffff0000000000000000000000000000000000000000000000000000000082167f979d37f30000000000000000000000000000000000000000000000000000000014806103f257506103f282610e41565b92915050565b60006103f282610ed8565b6104426040518060c00160405280600063ffffffff16815260200160008152602001600081526020016000815260200160608152602001606081525090565b6104548a428b8b8b8b8b8b8b8b610eeb565b9a9950505050505050505050565b6104a16040518060c00160405280600063ffffffff16815260200160008152602001600081526020016000815260200160608152602001606081525090565b6104be89426104b281610e1061277a565b8b8b8b8b8b8b8b610eeb565b9998505050505050505050565b6002600054036105225760405162461bcd60e51b815260206004820152601f60248201527f5265656e7472616e637947756172643a207265656e7472616e742063616c6c0060448201526064015b60405180910390fd5b600260005560408051602081018590528082018490527fff0000000000000000000000000000000000000000000000000000000000000060f884901b166060820152815180820360410181526061909101909152610581908590611026565b505060016000555050565b6105cb6040518060c00160405280600063ffffffff16815260200160008152602001600081526020016000815260200160608152602001606081525090565b6105dd8b8b8b8b8b8b8b8b8b8b610eeb565b9b9a5050505050505050505050565b61062b6040518060c00160405280600063ffffffff16815260200160008152602001600081526020016000815260200160608152602001606081525090565b610645864261063c81610e1061277a565b888888886110b7565b9695505050505050565b60606103f2826111da565b6002600054036106ac5760405162461bcd60e51b815260206004820152601f60248201527f5265656e7472616e637947756172643a207265656e7472616e742063616c6c006044820152606401610519565b60026000819055506106f48383838080601f01602080910402602001604051908101604052809392919081815260200183838082843760009201919091525061102692505050565b5050600160005550565b60608167ffffffffffffffff8111156107195761071961278d565b60405190808252806020026020018201604052801561074c57816020015b60608152602001906001900390816107375790505b50905060005b828110156107ec576107bc30858584818110610770576107706127a3565b905060200281019061078291906127b9565b8080601f01602080910402602001604051908101604052809392919081815260200183838082843760009201919091525061170192505050565b8282815181106107ce576107ce6127a3565b602002602001018190525080806107e49061281e565b915050610752565b5092915050565b6108326040518060c00160405280600063ffffffff16815260200160008152602001600081526020016000815260200160608152602001606081525090565b610841874288888888886110b7565b979650505050505050565b60408051602081018590528082018490527fff0000000000000000000000000000000000000000000000000000000000000060f884901b1660608201528151808203604101815260619091019091526108a6908590611726565b5050505050565b6108ed8383838080601f01602080910402602001604051908101604052809392919081815260200183838082843760009201919091525061172692505050565b50505050565b6109326040518060c00160405280600063ffffffff16815260200160008152602001600081526020016000815260200160608152602001606081525090565b610941888888888888886110b7565b98975050505050505050565b6060600061095e60808401846127b9565b81019061096b9190612910565b60a001519392505050565b60008061098660808401846127b9565b8101906109939190612910565b519392505050565b60006109aa60808301836127b9565b8101906109b79190612910565b8051604082015160608301516080840151939450610a2a936001600160a01b037f00000000000000000000000000000000000000000000000000000000000000001693927f0000000000000000000000000000000000000000000000000000000000000000926000199283929190610b61565b602081015115610a915780516020820151610a91916001600160a01b037f000000000000000000000000000000000000000000000000000000000000000016917f000000000000000000000000000000000000000000000000000000000000000090610da0565b5050565b60606000610aa660808401846127b9565b810190610ab391906129bd565b604001519392505050565b600080610ace60808401846127b9565b81019061099391906129bd565b6000610aea60808301836127b9565b810190610af791906129bd565b602081015190915015610a915780516020820151610a91916001600160a01b037f000000000000000000000000000000000000000000000000000000000000000016917f000000000000000000000000000000000000000000000000000000000000000090610da0565b6040517f7ecebe000000000000000000000000000000000000000000000000000000000081526001600160a01b038881166004830152600091908a1690637ecebe0090602401602060405180830381865afa158015610bc4573d6000803e3d6000fd5b505050506040513d601f19601f82011682018060405250810190610be89190612a5b565b6040517fd505accf0000000000000000000000000000000000000000000000000000000081526001600160a01b038a811660048301528981166024830152604482018990526064820188905260ff8716608483015260a4820186905260c48201859052919250908a169063d505accf9060e401600060405180830381600087803b158015610c7557600080fd5b505af1158015610c89573d6000803e3d6000fd5b50506040517f7ecebe000000000000000000000000000000000000000000000000000000000081526001600160a01b038b81166004830152600093508c169150637ecebe0090602401602060405180830381865afa158015610cef573d6000803e3d6000fd5b505050506040513d601f19601f82011682018060405250810190610d139190612a5b565b9050610d2082600161277a565b8114610d945760405162461bcd60e51b815260206004820152602160248201527f5361666545524332303a207065726d697420646964206e6f742073756363656560448201527f64000000000000000000000000000000000000000000000000000000000000006064820152608401610519565b50505050505050505050565b604080516001600160a01b0385811660248301528416604482015260648082018490528251808303909101815260849091019091526020810180517bffffffffffffffffffffffffffffffffffffffffffffffffffffffff167f23b872dd000000000000000000000000000000000000000000000000000000001790526108ed90859061184e565b6060610e378484600085611938565b90505b9392505050565b60007fffffffff0000000000000000000000000000000000000000000000000000000082167f4c32b3500000000000000000000000000000000000000000000000000000000014806103f257507f01ffc9a7000000000000000000000000000000000000000000000000000000007fffffffff000000000000000000000000000000000000000000000000000000008316146103f2565b60006103f2610ee6836111da565b611a75565b610f2a6040518060c00160405280600063ffffffff16815260200160008152602001600081526020016000815260200160608152602001606081525090565b6040518060c001604052807fa681b7637c5ed2feda69f41cc9a534ac17fcd118d80d10db879b348157ebd93460e01c63ffffffff1681526020018c81526020018b81526020018a81526020016040518060c001604052808b6001600160a01b031681526020018a81526020018960ff16815260200188815260200187815260200186868080601f0160208091040260200160405190810160405280939291908181526020018383808284376000920191909152505050915250604051610ff39190602001612a74565b60408051601f1981840301815291815290825280516020818101909252600081529101529b9a5050505050505050505050565b60006110328383611726565b600081815260026020526040902080547fffffffffffffffffffffffffffffffffffffffffffffffffffffffffffffff00166001179055905061107483611ab0565b807fd193a54dd0b0b5884cffc665f0803faa8d7f44280881b0a277878158bebd4c5d336040516001600160a01b03909116815260200160405180910390a2505050565b6110f66040518060c00160405280600063ffffffff16815260200160008152602001600081526020016000815260200160608152602001606081525090565b6040518060c001604052807ff7d719823c8a23d19efc4eacc1963ff9c7d7bcf57ddbb5747243f182c5dc0b4e60e01c63ffffffff1681526020018981526020018881526020018781526020016040518060600160405280886001600160a01b0316815260200187815260200186868080601f01602080910402602001604051908101604052809392919081815260200183838082843760009201919091525050509152506040516111aa9190602001612acd565b60408051601f19818403018152918152908252805160208181019092526000815291015298975050505050505050565b60606111e582611aff565b6040516020016111f59190612b05565b60408051601f198184030181529190526112126020840184612b2a565b6040517f6900a3ae00000000000000000000000000000000000000000000000000000000815263ffffffff909116600482015273__$6c26b6356be7587ae5a263a1ef0d5ec208$__90636900a3ae90602401600060405180830381865af4158015611281573d6000803e3d6000fd5b505050506040513d6000823e601f3d908101601f191682016040526112a99190810190612b50565b6040516020016112b99190612bbe565b60408051808303601f19018152908290527f6900a3ae000000000000000000000000000000000000000000000000000000008252602085013560048301529073__$6c26b6356be7587ae5a263a1ef0d5ec208$__90636900a3ae90602401600060405180830381865af4158015611334573d6000803e3d6000fd5b505050506040513d6000823e601f3d908101601f1916820160405261135c9190810190612b50565b60405160200161136c9190612c0e565b60408051808303601f190181528282527f4b2dd5190000000000000000000000000000000000000000000000000000000083529086013564ffffffffff1660048301529073__$6c26b6356be7587ae5a263a1ef0d5ec208$__90634b2dd51990602401600060405180830381865af41580156113ec573d6000803e3d6000fd5b505050506040513d6000823e601f3d908101601f191682016040526114149190810190612b50565b6040516020016114249190612c5e565b60408051808303601f19018152908290527f4b2dd519000000000000000000000000000000000000000000000000000000008252606087013564ffffffffff1660048301529073__$6c26b6356be7587ae5a263a1ef0d5ec208$__90634b2dd51990602401600060405180830381865af41580156114a6573d6000803e3d6000fd5b505050506040513d6000823e601f3d908101601f191682016040526114ce9190810190612b50565b6040516020016114de9190612cae565b60408051601f198184030181529190526114fb60808801886127b9565b8080601f016020809104026020016040519081016040528093929190818152602001838380828437600092019190915250506040517f71aad10d00000000000000000000000000000000000000000000000000000000815273__$6c26b6356be7587ae5a263a1ef0d5ec208$__936371aad10d935061157e925090600401612507565b600060405180830381865af415801561159b573d6000803e3d6000fd5b505050506040513d6000823e601f3d908101601f191682016040526115c39190810190612b50565b6040516020016115d39190612ce6565b60408051601f198184030181529190526115f060a08901896127b9565b8080601f016020809104026020016040519081016040528093929190818152602001838380828437600092019190915250506040517f71aad10d00000000000000000000000000000000000000000000000000000000815273__$6c26b6356be7587ae5a263a1ef0d5ec208$__936371aad10d9350611673925090600401612507565b600060405180830381865af4158015611690573d6000803e3d6000fd5b505050506040513d6000823e601f3d908101601f191682016040526116b89190810190612b50565b6040516020016116c89190612d36565b60408051601f19818403018152908290526116eb97969594939291602001612d7b565b6040516020818303038152906040529050919050565b6060610e3a8383604051806060016040528060278152602001612f7260279139611b39565b6000826040013542101561176c57604080517fb27ee6fc000000000000000000000000000000000000000000000000000000008152908401356004820152602401610519565b42836060013510156117b0576040517ff80dbaea00000000000000000000000000000000000000000000000000000000815260608401356004820152602401610519565b6117b983610ed8565b60008181526002602052604090205490915060ff1615611805576040517f86a77a9700000000000000000000000000000000000000000000000000000000815260040160405180910390fd5b61181861181184611c23565b8284611c68565b6103f2576040517f8baa579f00000000000000000000000000000000000000000000000000000000815260040160405180910390fd5b60006118a3826040518060400160405280602081526020017f5361666545524332303a206c6f772d6c6576656c2063616c6c206661696c6564815250856001600160a01b0316610e289092919063ffffffff16565b80519091501561193357808060200190518101906118c19190612e42565b6119335760405162461bcd60e51b815260206004820152602a60248201527f5361666545524332303a204552433230206f7065726174696f6e20646964206e60448201527f6f742073756363656564000000000000000000000000000000000000000000006064820152608401610519565b505050565b6060824710156119b05760405162461bcd60e51b815260206004820152602660248201527f416464726573733a20696e73756666696369656e742062616c616e636520666f60448201527f722063616c6c00000000000000000000000000000000000000000000000000006064820152608401610519565b6001600160a01b0385163b611a075760405162461bcd60e51b815260206004820152601d60248201527f416464726573733a2063616c6c20746f206e6f6e2d636f6e74726163740000006044820152606401610519565b600080866001600160a01b03168587604051611a239190612e64565b60006040518083038185875af1925050503d8060008114611a60576040519150601f19603f3d011682016040523d82523d6000602084013e611a65565b606091505b5091509150610841828286611def565b6000611a818251611e28565b82604051602001611a93929190612e80565b604051602081830303815290604052805190602001209050919050565b611afc8160016000611ac56020840184612b2a565b63ffffffff908116825260208201929092526040016000205470010000000000000000000000000000000090048015612097021716565b50565b60606103f28260016000611b166020840184612b2a565b63ffffffff90811682526020820192909252604001600020546120978115021716565b60606001600160a01b0384163b611bb85760405162461bcd60e51b815260206004820152602660248201527f416464726573733a2064656c65676174652063616c6c20746f206e6f6e2d636f60448201527f6e747261637400000000000000000000000000000000000000000000000000006064820152608401610519565b600080856001600160a01b031685604051611bd39190612e64565b600060405180830381855af49150503d8060008114611c0e576040519150601f19603f3d011682016040523d82523d6000602084013e611c13565b606091505b5091509150610645828286611def565b60006103f282600183611c396020840184612b2a565b63ffffffff90811682526020820192909252604001600020546801000000000000000090048015612097021716565b6000806000611c778585611f65565b90925090506000816004811115611c9057611c90612edb565b148015611cae5750856001600160a01b0316826001600160a01b0316145b15611cbe57600192505050610e3a565b600080876001600160a01b0316631626ba7e60e01b8888604051602401611ce6929190612ef1565b60408051601f198184030181529181526020820180517bffffffffffffffffffffffffffffffffffffffffffffffffffffffff167fffffffff00000000000000000000000000000000000000000000000000000000909416939093179092529051611d519190612e64565b600060405180830381855afa9150503d8060008114611d8c576040519150601f19603f3d011682016040523d82523d6000602084013e611d91565b606091505b5091509150818015611da4575080516020145b8015610941575080517f1626ba7e0000000000000000000000000000000000000000000000000000000090611de29083016020908101908401612a5b565b1498975050505050505050565b60608315611dfe575081610e3a565b825115611e0e5782518084602001fd5b8160405162461bcd60e51b81526004016105199190612507565b606081600003611e6b57505060408051808201909152600181527f3000000000000000000000000000000000000000000000000000000000000000602082015290565b8160005b8115611e955780611e7f8161281e565b9150611e8e9050600a83612f20565b9150611e6f565b60008167ffffffffffffffff811115611eb057611eb061278d565b6040519080825280601f01601f191660200182016040528015611eda576020820181803683370190505b5090505b8415611f5d57611eef600183612f34565b9150611efc600a86612f47565b611f0790603061277a565b60f81b818381518110611f1c57611f1c6127a3565b60200101907effffffffffffffffffffffffffffffffffffffffffffffffffffffffffffff1916908160001a905350611f56600a86612f20565b9450611ede565b949350505050565b6000808251604103611f9b5760208301516040840151606085015160001a611f8f87828585611faa565b94509450505050611fa3565b506000905060025b9250929050565b6000807f7fffffffffffffffffffffffffffffff5d576e7357a4501ddfe92f46681b20a0831115611fe1575060009050600361208e565b8460ff16601b14158015611ff957508460ff16601c14155b1561200a575060009050600461208e565b6040805160008082526020820180845289905260ff881692820192909252606081018690526080810185905260019060a0016020604051602081039080840390855afa15801561205e573d6000803e3d6000fd5b5050604051601f1901519150506001600160a01b0381166120875760006001925092505061208e565b9150600090505b94509492505050565b61209f612f5b565b565b6000602082840312156120b357600080fd5b81357fffffffff0000000000000000000000000000000000000000000000000000000081168114610e3a57600080fd5b600060c082840312156120f557600080fd5b50919050565b60006020828403121561210d57600080fd5b813567ffffffffffffffff81111561212457600080fd5b611f5d848285016120e3565b80356001600160a01b038116811461214757600080fd5b919050565b803560ff8116811461214757600080fd5b60008083601f84011261216f57600080fd5b50813567ffffffffffffffff81111561218757600080fd5b602083019150836020828501011115611fa357600080fd5b60008060008060008060008060006101008a8c0312156121be57600080fd5b8935985060208a013597506121d560408b01612130565b965060608a013595506121ea60808b0161214c565b945060a08a0135935060c08a0135925060e08a013567ffffffffffffffff81111561221457600080fd5b6122208c828d0161215d565b915080935050809150509295985092959850929598565b60005b8381101561225257818101518382015260200161223a565b50506000910152565b60008151808452612273816020860160208601612237565b601f01601f19169290920160200192915050565b6020815263ffffffff82511660208201526020820151604082015260408201516060820152606082015160808201526000608083015160c060a08401526122d160e084018261225b565b905060a0840151601f198483030160c08501526122ee828261225b565b95945050505050565b60008060008060008060008060e0898b03121561231357600080fd5b8835975061232360208a01612130565b96506040890135955061233860608a0161214c565b94506080890135935060a0890135925060c089013567ffffffffffffffff81111561236257600080fd5b61236e8b828c0161215d565b999c989b5096995094979396929594505050565b6000806000806080858703121561239857600080fd5b843567ffffffffffffffff8111156123af57600080fd5b6123bb878288016120e3565b94505060208501359250604085013591506123d86060860161214c565b905092959194509250565b6000806000806000806000806000806101208b8d03121561240357600080fd5b8a35995060208b0135985060408b0135975061242160608c01612130565b965060808b0135955061243660a08c0161214c565b945060c08b0135935060e08b013592506101008b013567ffffffffffffffff81111561246157600080fd5b61246d8d828e0161215d565b915080935050809150509295989b9194979a5092959850565b60006020828403121561249857600080fd5b5035919050565b6000806000806000608086880312156124b757600080fd5b853594506124c760208701612130565b935060408601359250606086013567ffffffffffffffff8111156124ea57600080fd5b6124f68882890161215d565b969995985093965092949392505050565b602081526000610e3a602083018461225b565b60008060006040848603121561252f57600080fd5b833567ffffffffffffffff8082111561254757600080fd5b612553878388016120e3565b9450602086013591508082111561256957600080fd5b506125768682870161215d565b9497909650939450505050565b6000806020838503121561259657600080fd5b823567ffffffffffffffff808211156125ae57600080fd5b818501915085601f8301126125c257600080fd5b8135818111156125d157600080fd5b8660208260051b85010111156125e657600080fd5b60209290920196919550909350505050565b6000602080830181845280855180835260408601915060408160051b870101925083870160005b8281101561266b577fffffffffffffffffffffffffffffffffffffffffffffffffffffffffffffffc088860301845261265985835161225b565b9450928501929085019060010161261f565b5092979650505050505050565b60008060008060008060a0878903121561269157600080fd5b86359550602087013594506126a860408801612130565b935060608701359250608087013567ffffffffffffffff8111156126cb57600080fd5b6126d789828a0161215d565b979a9699509497509295939492505050565b600080600080600080600060c0888a03121561270457600080fd5b87359650602088013595506040880135945061272260608901612130565b93506080880135925060a088013567ffffffffffffffff81111561274557600080fd5b6127518a828b0161215d565b989b979a50959850939692959293505050565b634e487b7160e01b600052601160045260246000fd5b808201808211156103f2576103f2612764565b634e487b7160e01b600052604160045260246000fd5b634e487b7160e01b600052603260045260246000fd5b60008083357fffffffffffffffffffffffffffffffffffffffffffffffffffffffffffffffe18436030181126127ee57600080fd5b83018035915067ffffffffffffffff82111561280957600080fd5b602001915036819003821315611fa357600080fd5b6000600019820361283157612831612764565b5060010190565b60405160c0810167ffffffffffffffff8111828210171561285b5761285b61278d565b60405290565b604051601f8201601f1916810167ffffffffffffffff8111828210171561288a5761288a61278d565b604052919050565b600067ffffffffffffffff8211156128ac576128ac61278d565b50601f01601f191660200190565b600082601f8301126128cb57600080fd5b81356128de6128d982612892565b612861565b8181528460208386010111156128f357600080fd5b816020850160208301376000918101602001919091529392505050565b60006020828403121561292257600080fd5b813567ffffffffffffffff8082111561293a57600080fd5b9083019060c0828603121561294e57600080fd5b612956612838565b61295f83612130565b8152602083013560208201526129776040840161214c565b6040820152606083013560608201526080830135608082015260a0830135828111156129a257600080fd5b6129ae878286016128ba565b60a08301525095945050505050565b6000602082840312156129cf57600080fd5b813567ffffffffffffffff808211156129e757600080fd5b90830190606082860312156129fb57600080fd5b604051606081018181108382111715612a1657612a1661278d565b604052612a2283612130565b815260208301356020820152604083013582811115612a4057600080fd5b612a4c878286016128ba565b60408301525095945050505050565b600060208284031215612a6d57600080fd5b5051919050565b602081526001600160a01b0382511660208201526020820151604082015260ff604083015116606082015260608201516080820152608082015160a0820152600060a083015160c080840152611f5d60e084018261225b565b602081526001600160a01b0382511660208201526020820151604082015260006040830151606080840152611f5d608084018261225b565b60008251612b17818460208701612237565b600560f91b920191825250600101919050565b600060208284031215612b3c57600080fd5b813563ffffffff81168114610e3a57600080fd5b600060208284031215612b6257600080fd5b815167ffffffffffffffff811115612b7957600080fd5b8201601f81018413612b8a57600080fd5b8051612b986128d982612892565b818152856020838501011115612bad57600080fd5b6122ee826020830160208601612237565b7f7461673a20000000000000000000000000000000000000000000000000000000815260008251612bf6816005850160208701612237565b600560f91b6005939091019283015250600601919050565b7f6e6f6e63653a2000000000000000000000000000000000000000000000000000815260008251612c46816007850160208701612237565b600560f91b6007939091019283015250600801919050565b7f76616c69642073696e63653a2000000000000000000000000000000000000000815260008251612c9681600d850160208701612237565b600560f91b600d939091019283015250600e01919050565b7f76616c696420756e74696c3a2000000000000000000000000000000000000000815260008251612c9681600d850160208701612237565b7f7061796c6f61643a200000000000000000000000000000000000000000000000815260008251612d1e816009850160208701612237565b600560f91b6009939091019283015250600a01919050565b7f6d657461646174613a2000000000000000000000000000000000000000000000815260008251612d6e81600a850160208701612237565b91909101600a0192915050565b600088516020612d8e8285838e01612237565b81840191507f2d2d2d0a00000000000000000000000000000000000000000000000000000000825260048a51612dc981838601858f01612237565b8a51930192612ddd81838601858e01612237565b8951930192612df181838601858d01612237565b8851930192612e0581838601858c01612237565b8751930192612e1981838601858b01612237565b8651930192612e2d81838601858a01612237565b929092019091019a9950505050505050505050565b600060208284031215612e5457600080fd5b81518015158114610e3a57600080fd5b60008251612e76818460208701612237565b9190910192915050565b7f19457468657265756d205369676e6564204d6573736167653a0a000000000000815260008351612eb881601a850160208801612237565b835190830190612ecf81601a840160208801612237565b01601a01949350505050565b634e487b7160e01b600052602160045260246000fd5b828152604060208201526000610e37604083018461225b565b634e487b7160e01b600052601260045260246000fd5b600082612f2f57612f2f612f0a565b500490565b818103818111156103f2576103f2612764565b600082612f5657612f56612f0a565b500690565b634e487b7160e01b600052605160045260246000fdfe416464726573733a206c6f772d6c6576656c2064656c65676174652063616c6c206661696c6564a2646970667358221220baef73bfb0744f7baed3bebd7058c3c9f7a66417a3e6a3997c174db206c54a5464736f6c63430008110033",
  "libraries": {
    "ToString": "0x1b6286EBdFeba70A8579E987A46Ee00cC7370572"
  },
  "devdoc": {
    "errors": {
      "Expired(uint256)": [
        {
          "params": {
            "validUntil": "The maximum block timestamp this voucher was valid until"
          }
        }
      ],
      "NotYetActive(uint256)": [
        {
          "params": {
            "validSince": "The minimum block timestamp this voucher will be valid since"
          }
        }
      ]
    },
    "kind": "dev",
    "methods": {
      "buildPermitAndPurchaseVoucher(uint256,address,uint256,uint8,bytes32,bytes32,string)": {
        "params": {
          "amount": "Amount to use",
          "from": "Transfer origin to use",
          "message": "Message to use",
          "nonce": "Nonce to use",
          "r": "The permit's signature \"r\" value",
          "s": "The permit's signature \"s\" value",
          "v": "The permit's signature \"v\" value"
        },
        "returns": {
          "voucher": " The generated voucher"
        }
      },
      "buildPermitAndPurchaseVoucher(uint256,uint256,address,uint256,uint8,bytes32,bytes32,string)": {
        "params": {
          "amount": "Amount to use",
          "from": "Transfer origin to use",
          "message": "Message to use",
          "nonce": "Nonce to use",
          "r": "The permit's signature \"r\" value",
          "s": "The permit's signature \"s\" value",
          "v": "The permit's signature \"v\" value",
          "validUntil": "Voucher validUntil to use"
        },
        "returns": {
          "voucher": " The generated voucher"
        }
      },
      "buildPermitAndPurchaseVoucher(uint256,uint256,uint256,address,uint256,uint8,bytes32,bytes32,string)": {
        "params": {
          "amount": "Amount to use",
          "from": "Transfer origin to use",
          "message": "Message to use",
          "nonce": "Nonce to use",
          "r": "The permit's signature \"r\" value",
          "s": "The permit's signature \"s\" value",
          "v": "The permit's signature \"v\" value",
          "validSince": "Voucher validSince to use",
          "validUntil": "Voucher validUntil to use"
        },
        "returns": {
          "voucher": " The generated voucher"
        }
      },
      "buildPurchaseVoucher(uint256,address,uint256,string)": {
        "params": {
          "amount": "Amount to use",
          "from": "Transfer origin to use",
          "message": "Message to use",
          "nonce": "Nonce to use"
        },
        "returns": {
          "voucher": " The generated voucher"
        }
      },
      "buildPurchaseVoucher(uint256,uint256,address,uint256,string)": {
        "params": {
          "amount": "Amount to use",
          "from": "Transfer origin to use",
          "message": "Message to use",
          "nonce": "Nonce to use",
          "validUntil": "Voucher validUntil to use"
        },
        "returns": {
          "voucher": " The generated voucher"
        }
      },
      "buildPurchaseVoucher(uint256,uint256,uint256,address,uint256,string)": {
        "params": {
          "amount": "Amount to use",
          "from": "Transfer origin to use",
          "message": "Message to use",
          "nonce": "Nonce to use",
          "validSince": "Voucher validSince to use",
          "validUntil": "Voucher validUntil to use"
        },
        "returns": {
          "voucher": " The generated voucher"
        }
      },
      "constructor": {
        "params": {
          "theDestination": "Configured destination for transfers",
          "theToken": "Underlying ERC20 token"
        }
      },
      "destination()": {
        "returns": {
          "theDestination": " The address of the configured destination"
        }
      },
      "hashVoucher((uint32,uint256,uint256,uint256,bytes,bytes))": {
        "params": {
          "voucher": "The voucher to retrieve the hash for"
        },
        "returns": {
          "voucherHash": " The voucher hash associated to the given voucher"
        }
      },
      "multicall(bytes[])": {
        "details": "Receives and executes a batch of function calls on this contract."
      },
      "serveVoucher((uint32,uint256,uint256,uint256,bytes,bytes),bytes)": {
        "custom:emit": "VoucherServed",
        "params": {
          "signature": "The associated voucher signature",
          "voucher": "The voucher to serve"
        }
      },
      "serveVoucher((uint32,uint256,uint256,uint256,bytes,bytes),bytes32,bytes32,uint8)": {
        "custom:emit": "VoucherServed",
        "params": {
          "r": "The \"r\" component of the associated voucher signature",
          "s": "The \"s\" component of the associated voucher signature",
          "v": "The \"v\" component of the associated voucher signature",
          "voucher": "The voucher to serve"
        }
      },
      "stringifyVoucher((uint32,uint256,uint256,uint256,bytes,bytes))": {
        "params": {
          "voucher": "The voucher to stringify"
        },
        "returns": {
          "voucherString": " The string representation to be signed of the given voucher"
        }
      },
      "supportsInterface(bytes4)": {
        "params": {
          "interfaceId": "Interface ID to check against"
        },
        "returns": {
          "_0": "Whether the provided interface ID is supported"
        }
      },
      "token()": {
        "returns": {
          "theToken": " The address of the underlying ERC20 token"
        }
      },
      "validateVoucher((uint32,uint256,uint256,uint256,bytes,bytes),bytes)": {
        "params": {
          "signature": "The associated voucher signature",
          "voucher": "The voucher to validate"
        }
      },
      "validateVoucher((uint32,uint256,uint256,uint256,bytes,bytes),bytes32,bytes32,uint8)": {
        "params": {
          "r": "The \"r\" component of the associated voucher signature",
          "s": "The \"s\" component of the associated voucher signature",
          "v": "The \"v\" component of the associated voucher signature",
          "voucher": "The voucher to validate"
        }
      }
    },
    "version": 1
  },
  "userdoc": {
    "errors": {
      "AlreadyServed()": [
        {
          "notice": "Raised upon encountering an already served voucher"
        }
      ],
      "Expired(uint256)": [
        {
          "notice": "Raised upon encountering a voucher that has already expired"
        }
      ],
      "InvalidSignature()": [
        {
          "notice": "Raised upon encountering a voucher with an invalid signature"
        }
      ],
      "NotYetActive(uint256)": [
        {
          "notice": "Raised upon encountering a voucher that is not yet active"
        }
      ]
    },
    "events": {
      "VoucherServed(bytes32,address)": {
        "notice": "Emitted upon a voucher being served"
      }
    },
    "kind": "user",
    "methods": {
      "VOUCHER_TYPEHASH()": {
        "notice": "Return the typehash associated to the Gateway Voucher itself"
      },
      "buildPermitAndPurchaseVoucher(uint256,address,uint256,uint8,bytes32,bytes32,string)": {
        "notice": "Build a PermitAndPurchaseVoucher from the given parameters"
      },
      "buildPermitAndPurchaseVoucher(uint256,uint256,address,uint256,uint8,bytes32,bytes32,string)": {
        "notice": "Build a PermitAndPurchaseVoucher from the given parameters"
      },
      "buildPermitAndPurchaseVoucher(uint256,uint256,uint256,address,uint256,uint8,bytes32,bytes32,string)": {
        "notice": "Build a PermitAndPurchaseVoucher from the given parameters"
      },
      "buildPurchaseVoucher(uint256,address,uint256,string)": {
        "notice": "Build a PurchaseVoucher from the given parameters"
      },
      "buildPurchaseVoucher(uint256,uint256,address,uint256,string)": {
        "notice": "Build a PurchaseVoucher from the given parameters"
      },
      "buildPurchaseVoucher(uint256,uint256,uint256,address,uint256,string)": {
        "notice": "Build a PurchaseVoucher from the given parameters"
      },
      "constructor": {
        "notice": "Build a new ERC20Gateway from the given token address"
      },
      "destination()": {
        "notice": "Retrieve the address of the configured destination"
      },
      "hashVoucher((uint32,uint256,uint256,uint256,bytes,bytes))": {
        "notice": "Return the voucher hash associated to the given voucher"
      },
      "serveVoucher((uint32,uint256,uint256,uint256,bytes,bytes),bytes)": {
        "notice": "Serve the given voucher, by forwarding to the appropriate handler for the voucher's tag"
      },
      "serveVoucher((uint32,uint256,uint256,uint256,bytes,bytes),bytes32,bytes32,uint8)": {
        "notice": "Serve the given voucher, by forwarding to the appropriate handler for the voucher's tag"
      },
      "stringifyVoucher((uint32,uint256,uint256,uint256,bytes,bytes))": {
        "notice": "Return the string representation to be signed for a given Voucher"
      },
      "supportsInterface(bytes4)": {
        "notice": "Implementation of the IERC165 interface"
      },
      "token()": {
        "notice": "Retrieve the address of the underlying ERC20 token"
      },
      "validateVoucher((uint32,uint256,uint256,uint256,bytes,bytes),bytes)": {
        "notice": "Validate the given voucher against the given signature"
      },
      "validateVoucher((uint32,uint256,uint256,uint256,bytes,bytes),bytes32,bytes32,uint8)": {
        "notice": "Validate the given voucher against the given signature, by the given signer"
      },
      "voucherServed(bytes32)": {
        "notice": "Determine whether the given voucher hash has been already served"
      }
    },
    "notice": "Bar gateway implementation",
    "version": 1
  },
  "storageLayout": {
    "storage": [
      {
        "astId": 3251,
        "contract": "contracts/BarGateway.sol:BarGateway",
        "label": "_status",
        "offset": 0,
        "slot": "0",
        "type": "t_uint256"
      },
      {
        "astId": 441,
        "contract": "contracts/BarGateway.sol:BarGateway",
        "label": "voucherHandler",
        "offset": 0,
        "slot": "1",
        "type": "t_mapping(t_uint32,t_struct(HandlerEntry)436_storage)"
      },
      {
        "astId": 452,
        "contract": "contracts/BarGateway.sol:BarGateway",
        "label": "voucherServed",
        "offset": 0,
        "slot": "2",
        "type": "t_mapping(t_bytes32,t_bool)"
      }
    ],
    "types": {
      "t_bool": {
        "encoding": "inplace",
        "label": "bool",
        "numberOfBytes": "1"
      },
      "t_bytes32": {
        "encoding": "inplace",
        "label": "bytes32",
        "numberOfBytes": "32"
      },
      "t_function_internal_nonpayable(t_struct(Voucher)959_calldata_ptr)returns()": {
        "encoding": "inplace",
        "label": "function (struct IGateway.Voucher)",
        "numberOfBytes": "8"
      },
      "t_function_internal_view(t_struct(Voucher)959_calldata_ptr)returns(t_address)": {
        "encoding": "inplace",
        "label": "function (struct IGateway.Voucher) view returns (address)",
        "numberOfBytes": "8"
      },
      "t_function_internal_view(t_struct(Voucher)959_calldata_ptr)returns(t_string_memory_ptr)": {
        "encoding": "inplace",
        "label": "function (struct IGateway.Voucher) view returns (string)",
        "numberOfBytes": "8"
      },
      "t_mapping(t_bytes32,t_bool)": {
        "encoding": "mapping",
        "key": "t_bytes32",
        "label": "mapping(bytes32 => bool)",
        "numberOfBytes": "32",
        "value": "t_bool"
      },
      "t_mapping(t_uint32,t_struct(HandlerEntry)436_storage)": {
        "encoding": "mapping",
        "key": "t_uint32",
        "label": "mapping(uint32 => struct Gateway.HandlerEntry)",
        "numberOfBytes": "32",
        "value": "t_struct(HandlerEntry)436_storage"
      },
      "t_struct(HandlerEntry)436_storage": {
        "encoding": "inplace",
        "label": "struct Gateway.HandlerEntry",
        "members": [
          {
            "astId": 419,
            "contract": "contracts/BarGateway.sol:BarGateway",
            "label": "message",
            "offset": 0,
            "slot": "0",
            "type": "t_function_internal_view(t_struct(Voucher)959_calldata_ptr)returns(t_string_memory_ptr)"
          },
          {
            "astId": 428,
            "contract": "contracts/BarGateway.sol:BarGateway",
            "label": "signer",
            "offset": 8,
            "slot": "0",
            "type": "t_function_internal_view(t_struct(Voucher)959_calldata_ptr)returns(t_address)"
          },
          {
            "astId": 435,
            "contract": "contracts/BarGateway.sol:BarGateway",
            "label": "execute",
            "offset": 16,
            "slot": "0",
            "type": "t_function_internal_nonpayable(t_struct(Voucher)959_calldata_ptr)returns()"
          }
        ],
        "numberOfBytes": "32"
      },
      "t_uint256": {
        "encoding": "inplace",
        "label": "uint256",
        "numberOfBytes": "32"
      },
      "t_uint32": {
        "encoding": "inplace",
        "label": "uint32",
        "numberOfBytes": "4"
      }
    }
  }
}